{
  "contractName": "SlowWallet",
  "abi": [
    {
      "constant": true,
      "inputs": [
        {
          "name": "",
          "type": "uint256"
        }
      ],
      "name": "proposals",
      "outputs": [
        {
          "name": "destination",
          "type": "address"
        },
        {
          "name": "value",
          "type": "uint256"
        },
        {
          "name": "time",
          "type": "uint256"
        },
        {
          "name": "notes",
          "type": "string"
        },
        {
          "name": "closed",
          "type": "bool"
        }
      ],
      "payable": false,
      "stateMutability": "view",
      "type": "function"
    },
    {
      "constant": true,
      "inputs": [],
      "name": "proposalsLength",
      "outputs": [
        {
          "name": "",
          "type": "uint256"
        }
      ],
      "payable": false,
      "stateMutability": "view",
      "type": "function"
    },
    {
      "constant": true,
      "inputs": [],
      "name": "delay",
      "outputs": [
        {
          "name": "",
          "type": "uint256"
        }
      ],
      "payable": false,
      "stateMutability": "view",
      "type": "function"
    },
    {
      "constant": true,
      "inputs": [],
      "name": "owner",
      "outputs": [
        {
          "name": "",
          "type": "address"
        }
      ],
      "payable": false,
      "stateMutability": "view",
      "type": "function"
    },
    {
      "constant": true,
      "inputs": [],
      "name": "token",
      "outputs": [
        {
          "name": "",
          "type": "address"
        }
      ],
      "payable": false,
      "stateMutability": "view",
      "type": "function"
    },
    {
      "inputs": [
        {
          "name": "tokenAddress",
          "type": "address"
        }
      ],
      "payable": false,
      "stateMutability": "nonpayable",
      "type": "constructor"
    },
    {
      "anonymous": false,
      "inputs": [
        {
          "indexed": false,
          "name": "index",
          "type": "uint256"
        },
        {
          "indexed": true,
          "name": "destination",
          "type": "address"
        },
        {
          "indexed": false,
          "name": "value",
          "type": "uint256"
        },
        {
          "indexed": false,
          "name": "delayUntil",
          "type": "uint256"
        },
        {
          "indexed": false,
          "name": "notes",
          "type": "string"
        }
      ],
      "name": "TransferProposed",
      "type": "event"
    },
    {
      "anonymous": false,
      "inputs": [
        {
          "indexed": false,
          "name": "index",
          "type": "uint256"
        },
        {
          "indexed": true,
          "name": "destination",
          "type": "address"
        },
        {
          "indexed": false,
          "name": "value",
          "type": "uint256"
        },
        {
          "indexed": false,
          "name": "notes",
          "type": "string"
        }
      ],
      "name": "TransferConfirmed",
      "type": "event"
    },
    {
      "anonymous": false,
      "inputs": [
        {
          "indexed": false,
          "name": "index",
          "type": "uint256"
        },
        {
          "indexed": true,
          "name": "destination",
          "type": "address"
        },
        {
          "indexed": false,
          "name": "value",
          "type": "uint256"
        },
        {
          "indexed": false,
          "name": "notes",
          "type": "string"
        }
      ],
      "name": "TransferCancelled",
      "type": "event"
    },
    {
      "anonymous": false,
      "inputs": [],
      "name": "AllTransfersCancelled",
      "type": "event"
    },
    {
      "constant": false,
      "inputs": [
        {
          "name": "destination",
          "type": "address"
        },
        {
          "name": "value",
          "type": "uint256"
        },
        {
          "name": "notes",
          "type": "string"
        }
      ],
      "name": "propose",
      "outputs": [],
      "payable": false,
      "stateMutability": "nonpayable",
      "type": "function"
    },
    {
      "constant": false,
      "inputs": [
        {
          "name": "index",
          "type": "uint256"
        },
        {
          "name": "addr",
          "type": "address"
        },
        {
          "name": "value",
          "type": "uint256"
        }
      ],
      "name": "cancel",
      "outputs": [],
      "payable": false,
      "stateMutability": "nonpayable",
      "type": "function"
    },
    {
      "constant": false,
      "inputs": [],
      "name": "voidAll",
      "outputs": [],
      "payable": false,
      "stateMutability": "nonpayable",
      "type": "function"
    },
    {
      "constant": false,
      "inputs": [
        {
          "name": "index",
          "type": "uint256"
        },
        {
          "name": "destination",
          "type": "address"
        },
        {
          "name": "value",
          "type": "uint256"
        }
      ],
      "name": "confirm",
      "outputs": [],
      "payable": false,
      "stateMutability": "nonpayable",
      "type": "function"
    }
  ],
  "bytecode": "0x608060405234801561001057600080fd5b506040516020806113168339810180604052602081101561003057600080fd5b8101908080519060200190929190505050806000806101000a81548173ffffffffffffffffffffffffffffffffffffffff021916908373ffffffffffffffffffffffffffffffffffffffff16021790555033600160006101000a81548173ffffffffffffffffffffffffffffffffffffffff021916908373ffffffffffffffffffffffffffffffffffffffff16021790555050611244806100d26000396000f3fe608060405234801561001057600080fd5b50600436106100935760003560e01c80637b166f60116100665780637b166f601461021f5780638da5cb5b146102c2578063bf60f8ef1461030c578063d0a08d6e14610316578063fc0c546a1461036e57610093565b8063013cf08b14610098578063315a69fa1461018b57806344c7c867146101e35780636a42b8f814610201575b600080fd5b6100c4600480360360208110156100ae57600080fd5b81019080803590602001909291905050506103b8565b604051808673ffffffffffffffffffffffffffffffffffffffff1673ffffffffffffffffffffffffffffffffffffffff1681526020018581526020018481526020018060200183151515158152602001828103825284818151815260200191508051906020019080838360005b8381101561014c578082015181840152602081019050610131565b50505050905090810190601f1680156101795780820380516001836020036101000a031916815260200191505b50965050505050505060405180910390f35b6101e1600480360360608110156101a157600080fd5b8101908080359060200190929190803573ffffffffffffffffffffffffffffffffffffffff169060200190929190803590602001909291905050506104b3565b005b6101eb6106aa565b6040518082815260200191505060405180910390f35b6102096106b0565b6040518082815260200191505060405180910390f35b6102c06004803603606081101561023557600080fd5b81019080803573ffffffffffffffffffffffffffffffffffffffff169060200190929190803590602001909291908035906020019064010000000081111561027c57600080fd5b82018360208201111561028e57600080fd5b803590602001918460018302840111640100000000831117156102b057600080fd5b90919293919293905050506106b7565b005b6102ca6109de565b604051808273ffffffffffffffffffffffffffffffffffffffff1673ffffffffffffffffffffffffffffffffffffffff16815260200191505060405180910390f35b610314610a04565b005b61036c6004803603606081101561032c57600080fd5b8101908080359060200190929190803573ffffffffffffffffffffffffffffffffffffffff16906020019092919080359060200190929190505050610afd565b005b610376610ed4565b604051808273ffffffffffffffffffffffffffffffffffffffff1673ffffffffffffffffffffffffffffffffffffffff16815260200191505060405180910390f35b60026020528060005260406000206000915090508060000160009054906101000a900473ffffffffffffffffffffffffffffffffffffffff1690806001015490806002015490806003018054600181600116156101000203166002900480601f0160208091040260200160405190810160405280929190818152602001828054600181600116156101000203166002900480156104965780601f1061046b57610100808354040283529160200191610496565b820191906000526020600020905b81548152906001019060200180831161047957829003601f168201915b5050505050908060040160009054906101000a900460ff16905085565b600160009054906101000a900473ffffffffffffffffffffffffffffffffffffffff1673ffffffffffffffffffffffffffffffffffffffff163373ffffffffffffffffffffffffffffffffffffffff1614610576576040517f08c379a000000000000000000000000000000000000000000000000000000000815260040180806020018281038252600d8152602001807f6d757374206265206f776e65720000000000000000000000000000000000000081525060200191505060405180910390fd5b610581838383610ef9565b60016002600085815260200190815260200160002060040160006101000a81548160ff0219169083151502179055508173ffffffffffffffffffffffffffffffffffffffff167fa99797fde63ee29177c0bcd12725053c1fcecc39957a12d910dad426ddefafcf84836002600088815260200190815260200160002060030160405180848152602001838152602001806020018281038252838181546001816001161561010002031660029004815260200191508054600181600116156101000203166002900480156106955780601f1061066a57610100808354040283529160200191610695565b820191906000526020600020905b81548152906001019060200180831161067857829003601f168201915b505094505050505060405180910390a2505050565b60035481565b6224ea0081565b600160009054906101000a900473ffffffffffffffffffffffffffffffffffffffff1673ffffffffffffffffffffffffffffffffffffffff163373ffffffffffffffffffffffffffffffffffffffff161461077a576040517f08c379a000000000000000000000000000000000000000000000000000000000815260040180806020018281038252600d8152602001807f6d757374206265206f776e65720000000000000000000000000000000000000081525060200191505060405180910390fd5b60006224ea0042019050428110156107fa576040517f08c379a00000000000000000000000000000000000000000000000000000000081526004018080602001828103825260108152602001807f64656c6179206f766572666c6f7765640000000000000000000000000000000081525060200191505060405180910390fd5b6040518060a001604052808673ffffffffffffffffffffffffffffffffffffffff16815260200185815260200182815260200184848080601f016020809104026020016040519081016040528093929190818152602001838380828437600081840152601f19601f8201169050808301925050505050505081526020016000151581525060026000600354815260200190815260200160002060008201518160000160006101000a81548173ffffffffffffffffffffffffffffffffffffffff021916908373ffffffffffffffffffffffffffffffffffffffff1602179055506020820151816001015560408201518160020155606082015181600301908051906020019061090a929190611151565b5060808201518160040160006101000a81548160ff0219169083151502179055509050506003600081548092919060010191905055508473ffffffffffffffffffffffffffffffffffffffff167fc21d9f71ad43be26dd663dc2ae89d8a5f2e2e627520624eeff74bf1004d80b3d6001600354038684878760405180868152602001858152602001848152602001806020018281038252848482818152602001925080828437600081840152601f19601f820116905080830192505050965050505050505060405180910390a25050505050565b600160009054906101000a900473ffffffffffffffffffffffffffffffffffffffff1681565b600160009054906101000a900473ffffffffffffffffffffffffffffffffffffffff1673ffffffffffffffffffffffffffffffffffffffff163373ffffffffffffffffffffffffffffffffffffffff1614610ac7576040517f08c379a000000000000000000000000000000000000000000000000000000000815260040180806020018281038252600d8152602001807f6d757374206265206f776e65720000000000000000000000000000000000000081525060200191505060405180910390fd5b60006003819055507ff4a9bad09d9916720a4c78733bb1b637bccdc7b56ae0f78e6bb63c99934b49b960405160405180910390a1565b600160009054906101000a900473ffffffffffffffffffffffffffffffffffffffff1673ffffffffffffffffffffffffffffffffffffffff163373ffffffffffffffffffffffffffffffffffffffff1614610bc0576040517f08c379a000000000000000000000000000000000000000000000000000000000815260040180806020018281038252600d8152602001807f6d757374206265206f776e65720000000000000000000000000000000000000081525060200191505060405180910390fd5b610bcb838383610ef9565b42600260008581526020019081526020016000206002015410610c56576040517f08c379a00000000000000000000000000000000000000000000000000000000081526004018080602001828103825260098152602001807f746f6f206561726c79000000000000000000000000000000000000000000000081525060200191505060405180910390fd5b60016002600085815260200190815260200160002060040160006101000a81548160ff0219169083151502179055508173ffffffffffffffffffffffffffffffffffffffff167f0725491da501611b9ba3843fe633719becb32a870a63c7008fab061512c834178483600260008881526020019081526020016000206003016040518084815260200183815260200180602001828103825283818154600181600116156101000203166002900481526020019150805460018160011615610100020316600290048015610d6a5780601f10610d3f57610100808354040283529160200191610d6a565b820191906000526020600020905b815481529060010190602001808311610d4d57829003601f168201915b505094505050505060405180910390a26000809054906101000a900473ffffffffffffffffffffffffffffffffffffffff1673ffffffffffffffffffffffffffffffffffffffff1663a9059cbb83836040518363ffffffff1660e01b8152600401808373ffffffffffffffffffffffffffffffffffffffff1673ffffffffffffffffffffffffffffffffffffffff16815260200182815260200192505050602060405180830381600087803b158015610e2257600080fd5b505af1158015610e36573d6000803e3d6000fd5b505050506040513d6020811015610e4c57600080fd5b8101908080519060200190929190505050610ecf576040517f08c379a000000000000000000000000000000000000000000000000000000000815260040180806020018281038252600f8152602001807f5472616e73666572206661696c6564000000000000000000000000000000000081525060200191505060405180910390fd5b505050565b6000809054906101000a900473ffffffffffffffffffffffffffffffffffffffff1681565b6003548310610f53576040517f08c379a00000000000000000000000000000000000000000000000000000000081526004018080602001828103825260228152602001806111f76022913960400191505060405180910390fd5b6002600084815260200190815260200160002060040160009054906101000a900460ff1615610fea576040517f08c379a00000000000000000000000000000000000000000000000000000000081526004018080602001828103825260178152602001807f7472616e7366657220616c726561647920636c6f73656400000000000000000081525060200191505060405180910390fd5b8173ffffffffffffffffffffffffffffffffffffffff166002600085815260200190815260200160002060000160009054906101000a900473ffffffffffffffffffffffffffffffffffffffff1673ffffffffffffffffffffffffffffffffffffffff16146110c1576040517f08c379a00000000000000000000000000000000000000000000000000000000081526004018080602001828103825260168152602001807f64657374696e6174696f6e206d69736d6174636865640000000000000000000081525060200191505060405180910390fd5b8060026000858152602001908152602001600020600101541461114c576040517f08c379a00000000000000000000000000000000000000000000000000000000081526004018080602001828103825260108152602001807f76616c7565206d69736d6174636865640000000000000000000000000000000081525060200191505060405180910390fd5b505050565b828054600181600116156101000203166002900490600052602060002090601f016020900481019282601f1061119257805160ff19168380011785556111c0565b828001600101855582156111c0579182015b828111156111bf5782518255916020019190600101906111a4565b5b5090506111cd91906111d1565b5090565b6111f391905b808211156111ef5760008160009055506001016111d7565b5090565b9056fe696e64657820746f6f20686967682c206f72207472616e7366657220766f69646564a165627a7a72305820918b574f52ee83ae2fb5f8143ddb2d367939d8a7b0ab9f4c21b310b16247c02e0029",
  "source": "pragma solidity ^0.5.0;\n\nimport \"openzeppelin-solidity/contracts/token/ERC20/IERC20.sol\";\n\n/// @title Time-delayed ERC-20 wallet contract.\n/// Can only transfer tokens after publicly recording the intention to do so\n/// at least four weeks in advance.\ncontract SlowWallet {\n\n    struct TransferProposal {\n        address destination;\n        uint256 value;\n        uint256 time;\n        string notes;\n        bool closed;\n    }\n\n    IERC20 public token;\n    uint256 public constant delay = 4 weeks;\n    address public owner;\n\n    mapping (uint256 => TransferProposal) public proposals;\n    uint256 public proposalsLength;\n\n    event TransferProposed(\n        uint256 index,\n        address indexed destination,\n        uint256 value,\n        uint256 delayUntil,\n        string notes\n    );\n    event TransferConfirmed(uint256 index, address indexed destination, uint256 value, string notes);\n    event TransferCancelled(uint256 index, address indexed destination, uint256 value, string notes);\n    event AllTransfersCancelled();\n\n    constructor(address tokenAddress) public {\n        token = IERC20(tokenAddress);\n        owner = msg.sender;\n    }\n\n    modifier onlyOwner() {\n        require(msg.sender == owner, \"must be owner\");\n        _;\n    }\n\n    /// Propose a new transfer, which can be confirmed after two weeks.\n    function propose(address destination, uint256 value, string calldata notes) external onlyOwner {\n        // Delay by at least two weeks.\n        // We are relying on block.timestamp for this, and aware of the possibility of its\n        // manipulation by miners. But we are working at a timescale that is already much\n        // longer than the variance in timestamps we have observed and expect in the future,\n        // so we are satisfied with this choice.\n\n        // solium-disable-next-line security/no-block-members\n        uint256 delayUntil = now + delay;\n\n        // solium-disable-next-line security/no-block-members\n        require(delayUntil >= now, \"delay overflowed\");\n\n        proposals[proposalsLength] = TransferProposal({\n            destination: destination,\n            value: value,\n            time: delayUntil,\n            notes: notes,\n            closed: false\n        });\n        proposalsLength++;\n\n        emit TransferProposed(proposalsLength-1, destination, value, delayUntil, notes);\n    }\n\n    /// Cancel a proposed transfer.\n    function cancel(uint256 index, address addr, uint256 value) external onlyOwner {\n        // Check authorization.\n        requireMatchingOpenProposal(index, addr, value);\n\n        // Cancel transfer.\n        proposals[index].closed = true;\n        emit TransferCancelled(index, addr, value, proposals[index].notes);\n    }\n\n    /// Mark all proposals \"void\", in O(1).\n    function voidAll() external onlyOwner {\n        proposalsLength = 0;\n        emit AllTransfersCancelled();\n    }\n\n    /// Confirm and execute a proposed transfer, if enough time has passed since it was proposed.\n    function confirm(uint256 index, address destination, uint256 value) external onlyOwner {\n        // Check authorization.\n        requireMatchingOpenProposal(index, destination, value);\n\n        // See commentary above about using `now`.\n        // solium-disable-next-line security/no-block-members\n        require(proposals[index].time < now, \"too early\");\n\n        // Record execution of transfer.\n        proposals[index].closed = true;\n        emit TransferConfirmed(index, destination, value, proposals[index].notes);\n\n        // Proceed with execution of transfer.\n        require(token.transfer(destination, value), \"Transfer failed\");\n    }\n\n    /// Throw unless the given transfer proposal exists and matches `destination` and `value`.\n    function requireMatchingOpenProposal(uint256 index, address destination, uint256 value) private view {\n        require(index < proposalsLength, \"index too high, or transfer voided\");\n        require(!proposals[index].closed, \"transfer already closed\");\n\n        // Slither reports \"dangerous strict equality\" for each of these, but it's OK.\n        // These equalities are to confirm that the transfer entered is equal to the\n        // matching previous transfer. We're vetting data entry; strict equality is appropriate.\n        require(proposals[index].destination == destination, \"destination mismatched\");\n        require(proposals[index].value == value, \"value mismatched\");\n    }\n}",
  "sourcePath": "/Users/samuel/Documents/code/nodejs/uniris_erc_20/contracts/SlowWallet.sol",
  "compiler": {
    "name": "solc",
    "version": "0.5.8+commit.23d335f2.Emscripten.clang"
  },
  "schemaVersion": "3.0.16",
  "updatedAt": "2019-11-12T15:30:49.438Z",
  "devdoc": {
    "methods": {},
    "title": "Time-delayed ERC-20 wallet contract. Can only transfer tokens after publicly recording the intention to do so at least four weeks in advance."
  },
  "userdoc": {
    "methods": {
      "cancel(uint256,address,uint256)": {
        "notice": "Cancel a proposed transfer."
      },
      "confirm(uint256,address,uint256)": {
        "notice": "Confirm and execute a proposed transfer, if enough time has passed since it was proposed."
      },
      "propose(address,uint256,string)": {
        "notice": "Propose a new transfer, which can be confirmed after two weeks."
      },
      "voidAll()": {
        "notice": "Mark all proposals \"void\", in O(1)."
      }
    }
  }
}