{
  "contractName": "UnirisToken",
  "abi": [
    {
      "constant": false,
      "inputs": [
        {
          "name": "spender",
          "type": "address"
        },
        {
          "name": "value",
          "type": "uint256"
        }
      ],
      "name": "approve",
      "outputs": [
        {
          "name": "",
          "type": "bool"
        }
      ],
      "payable": false,
      "stateMutability": "nonpayable",
      "type": "function"
    },
    {
      "constant": true,
      "inputs": [],
      "name": "private_sale_supply",
      "outputs": [
        {
          "name": "",
          "type": "uint256"
        }
      ],
      "payable": false,
      "stateMutability": "view",
      "type": "function"
    },
    {
      "constant": true,
      "inputs": [],
      "name": "exch_pool_beneficiary",
      "outputs": [
        {
          "name": "",
          "type": "address"
        }
      ],
      "payable": false,
      "stateMutability": "view",
      "type": "function"
    },
    {
      "constant": true,
      "inputs": [],
      "name": "totalSupply",
      "outputs": [
        {
          "name": "",
          "type": "uint256"
        }
      ],
      "payable": false,
      "stateMutability": "view",
      "type": "function"
    },
    {
      "constant": true,
      "inputs": [],
      "name": "network_pool_supply",
      "outputs": [
        {
          "name": "",
          "type": "uint256"
        }
      ],
      "payable": false,
      "stateMutability": "view",
      "type": "function"
    },
    {
      "constant": true,
      "inputs": [],
      "name": "foundation_beneficiary",
      "outputs": [
        {
          "name": "",
          "type": "address"
        }
      ],
      "payable": false,
      "stateMutability": "view",
      "type": "function"
    },
    {
      "constant": true,
      "inputs": [],
      "name": "enhancement_beneficiary",
      "outputs": [
        {
          "name": "",
          "type": "address"
        }
      ],
      "payable": false,
      "stateMutability": "view",
      "type": "function"
    },
    {
      "constant": true,
      "inputs": [],
      "name": "team_beneficiary",
      "outputs": [
        {
          "name": "",
          "type": "address"
        }
      ],
      "payable": false,
      "stateMutability": "view",
      "type": "function"
    },
    {
      "constant": false,
      "inputs": [
        {
          "name": "spender",
          "type": "address"
        },
        {
          "name": "addedValue",
          "type": "uint256"
        }
      ],
      "name": "increaseAllowance",
      "outputs": [
        {
          "name": "",
          "type": "bool"
        }
      ],
      "payable": false,
      "stateMutability": "nonpayable",
      "type": "function"
    },
    {
      "constant": true,
      "inputs": [],
      "name": "team_supply",
      "outputs": [
        {
          "name": "",
          "type": "uint256"
        }
      ],
      "payable": false,
      "stateMutability": "view",
      "type": "function"
    },
    {
      "constant": true,
      "inputs": [],
      "name": "exch_pool_supply",
      "outputs": [
        {
          "name": "",
          "type": "uint256"
        }
      ],
      "payable": false,
      "stateMutability": "view",
      "type": "function"
    },
    {
      "constant": true,
      "inputs": [],
      "name": "cliff_end_date",
      "outputs": [
        {
          "name": "",
          "type": "uint256"
        }
      ],
      "payable": false,
      "stateMutability": "view",
      "type": "function"
    },
    {
      "constant": true,
      "inputs": [],
      "name": "marketing_beneficiary",
      "outputs": [
        {
          "name": "",
          "type": "address"
        }
      ],
      "payable": false,
      "stateMutability": "view",
      "type": "function"
    },
    {
      "constant": true,
      "inputs": [],
      "name": "deliverable_supply",
      "outputs": [
        {
          "name": "",
          "type": "uint256"
        }
      ],
      "payable": false,
      "stateMutability": "view",
      "type": "function"
    },
    {
      "constant": true,
      "inputs": [],
      "name": "deliverables_beneficiary",
      "outputs": [
        {
          "name": "",
          "type": "address"
        }
      ],
      "payable": false,
      "stateMutability": "view",
      "type": "function"
    },
    {
      "constant": true,
      "inputs": [
        {
          "name": "account",
          "type": "address"
        }
      ],
      "name": "balanceOf",
      "outputs": [
        {
          "name": "",
          "type": "uint256"
        }
      ],
      "payable": false,
      "stateMutability": "view",
      "type": "function"
    },
    {
      "constant": true,
      "inputs": [],
      "name": "enhancement_supply",
      "outputs": [
        {
          "name": "",
          "type": "uint256"
        }
      ],
      "payable": false,
      "stateMutability": "view",
      "type": "function"
    },
    {
      "constant": true,
      "inputs": [],
      "name": "private_sale_beneficiary",
      "outputs": [
        {
          "name": "",
          "type": "address"
        }
      ],
      "payable": false,
      "stateMutability": "view",
      "type": "function"
    },
    {
      "constant": false,
      "inputs": [
        {
          "name": "spender",
          "type": "address"
        },
        {
          "name": "subtractedValue",
          "type": "uint256"
        }
      ],
      "name": "decreaseAllowance",
      "outputs": [
        {
          "name": "",
          "type": "bool"
        }
      ],
      "payable": false,
      "stateMutability": "nonpayable",
      "type": "function"
    },
    {
      "constant": true,
      "inputs": [
        {
          "name": "",
          "type": "address"
        },
        {
          "name": "",
          "type": "uint8"
        }
      ],
      "name": "releases",
      "outputs": [
        {
          "name": "start_with",
          "type": "uint256"
        },
        {
          "name": "amount",
          "type": "uint256"
        }
      ],
      "payable": false,
      "stateMutability": "view",
      "type": "function"
    },
    {
      "constant": true,
      "inputs": [],
      "name": "foundation_supply",
      "outputs": [
        {
          "name": "",
          "type": "uint256"
        }
      ],
      "payable": false,
      "stateMutability": "view",
      "type": "function"
    },
    {
      "constant": true,
      "inputs": [],
      "name": "release_yearly_rate",
      "outputs": [
        {
          "name": "",
          "type": "uint8"
        }
      ],
      "payable": false,
      "stateMutability": "view",
      "type": "function"
    },
    {
      "constant": true,
      "inputs": [],
      "name": "public_sale_supply",
      "outputs": [
        {
          "name": "",
          "type": "uint256"
        }
      ],
      "payable": false,
      "stateMutability": "view",
      "type": "function"
    },
    {
      "constant": true,
      "inputs": [
        {
          "name": "owner",
          "type": "address"
        },
        {
          "name": "spender",
          "type": "address"
        }
      ],
      "name": "allowance",
      "outputs": [
        {
          "name": "",
          "type": "uint256"
        }
      ],
      "payable": false,
      "stateMutability": "view",
      "type": "function"
    },
    {
      "constant": true,
      "inputs": [],
      "name": "marketing_supply",
      "outputs": [
        {
          "name": "",
          "type": "uint256"
        }
      ],
      "payable": false,
      "stateMutability": "view",
      "type": "function"
    },
    {
      "constant": true,
      "inputs": [],
      "name": "public_sale_beneficiary",
      "outputs": [
        {
          "name": "",
          "type": "address"
        }
      ],
      "payable": false,
      "stateMutability": "view",
      "type": "function"
    },
    {
      "constant": true,
      "inputs": [],
      "name": "vesting_end_date",
      "outputs": [
        {
          "name": "",
          "type": "uint256"
        }
      ],
      "payable": false,
      "stateMutability": "view",
      "type": "function"
    },
    {
      "constant": true,
      "inputs": [],
      "name": "network_pool_beneficiary",
      "outputs": [
        {
          "name": "",
          "type": "address"
        }
      ],
      "payable": false,
      "stateMutability": "view",
      "type": "function"
    },
    {
      "inputs": [
        {
          "name": "_private_sale_beneficiary",
          "type": "address"
        },
        {
          "name": "_public_sale_beneficiary",
          "type": "address"
        },
        {
          "name": "_deliverables_beneficiary",
          "type": "address"
        },
        {
          "name": "_network_pool_beneficiary",
          "type": "address"
        },
        {
          "name": "_enhancement_beneficiary",
          "type": "address"
        },
        {
          "name": "_team_beneficiary",
          "type": "address"
        },
        {
          "name": "_exch_pool_beneficiary",
          "type": "address"
        },
        {
          "name": "_marketing_beneficiary",
          "type": "address"
        },
        {
          "name": "_foundation_beneficiary",
          "type": "address"
        },
        {
          "name": "_vesting_end_date",
          "type": "uint256"
        },
        {
          "name": "_cliff_end_date",
          "type": "uint256"
        },
        {
          "name": "_release_yearly_rate",
          "type": "uint8"
        }
      ],
      "payable": false,
      "stateMutability": "nonpayable",
      "type": "constructor"
    },
    {
      "anonymous": false,
      "inputs": [
        {
          "indexed": true,
          "name": "x",
          "type": "int256"
        }
      ],
      "name": "DebugInt",
      "type": "event"
    },
    {
      "anonymous": false,
      "inputs": [
        {
          "indexed": true,
          "name": "from",
          "type": "address"
        },
        {
          "indexed": true,
          "name": "to",
          "type": "address"
        },
        {
          "indexed": false,
          "name": "value",
          "type": "uint256"
        }
      ],
      "name": "Transfer",
      "type": "event"
    },
    {
      "anonymous": false,
      "inputs": [
        {
          "indexed": true,
          "name": "owner",
          "type": "address"
        },
        {
          "indexed": true,
          "name": "spender",
          "type": "address"
        },
        {
          "indexed": false,
          "name": "value",
          "type": "uint256"
        }
      ],
      "name": "Approval",
      "type": "event"
    },
    {
      "constant": false,
      "inputs": [
        {
          "name": "to",
          "type": "address"
        },
        {
          "name": "value",
          "type": "uint256"
        }
      ],
      "name": "transfer",
      "outputs": [
        {
          "name": "",
          "type": "bool"
        }
      ],
      "payable": false,
      "stateMutability": "nonpayable",
      "type": "function"
    },
    {
      "constant": false,
      "inputs": [
        {
          "name": "from",
          "type": "address"
        },
        {
          "name": "to",
          "type": "address"
        },
        {
          "name": "value",
          "type": "uint256"
        }
      ],
      "name": "transferFrom",
      "outputs": [
        {
          "name": "",
          "type": "bool"
        }
      ],
      "payable": false,
      "stateMutability": "nonpayable",
      "type": "function"
    }
  ],
  "bytecode": "0x60806040523480156200001157600080fd5b506040516101808062002e8783398101806040526101808110156200003557600080fd5b81019080805190602001909291908051906020019092919080519060200190929190805190602001909291908051906020019092919080519060200190929190805190602001909291908051906020019092919080519060200190929190805190602001909291908051906020019092919080519060200190929190505050600073ffffffffffffffffffffffffffffffffffffffff168c73ffffffffffffffffffffffffffffffffffffffff1614156200013c576040517f08c379a000000000000000000000000000000000000000000000000000000000815260040180806020018281038252602881526020018062002deb6028913960400191505060405180910390fd5b600073ffffffffffffffffffffffffffffffffffffffff168b73ffffffffffffffffffffffffffffffffffffffff161415620001c4576040517f08c379a000000000000000000000000000000000000000000000000000000000815260040180806020018281038252602781526020018062002cc06027913960400191505060405180910390fd5b600073ffffffffffffffffffffffffffffffffffffffff168a73ffffffffffffffffffffffffffffffffffffffff1614156200024c576040517f08c379a000000000000000000000000000000000000000000000000000000000815260040180806020018281038252602881526020018062002ce76028913960400191505060405180910390fd5b600073ffffffffffffffffffffffffffffffffffffffff168973ffffffffffffffffffffffffffffffffffffffff161415620002d4576040517f08c379a000000000000000000000000000000000000000000000000000000000815260040180806020018281038252602881526020018062002e136028913960400191505060405180910390fd5b600073ffffffffffffffffffffffffffffffffffffffff168873ffffffffffffffffffffffffffffffffffffffff1614156200035c576040517f08c379a000000000000000000000000000000000000000000000000000000000815260040180806020018281038252602781526020018062002e3b6027913960400191505060405180910390fd5b600073ffffffffffffffffffffffffffffffffffffffff168773ffffffffffffffffffffffffffffffffffffffff16141562000400576040517f08c379a00000000000000000000000000000000000000000000000000000000081526004018080602001828103825260208152602001807f496e76616c6964207465616d2062656e6566696369617279206164647265737381525060200191505060405180910390fd5b600073ffffffffffffffffffffffffffffffffffffffff168673ffffffffffffffffffffffffffffffffffffffff16141562000488576040517f08c379a000000000000000000000000000000000000000000000000000000000815260040180806020018281038252602581526020018062002e626025913960400191505060405180910390fd5b600073ffffffffffffffffffffffffffffffffffffffff168573ffffffffffffffffffffffffffffffffffffffff16141562000510576040517f08c379a000000000000000000000000000000000000000000000000000000000815260040180806020018281038252602581526020018062002d7a6025913960400191505060405180910390fd5b600073ffffffffffffffffffffffffffffffffffffffff168473ffffffffffffffffffffffffffffffffffffffff16141562000598576040517f08c379a000000000000000000000000000000000000000000000000000000000815260040180806020018281038252602681526020018062002dc56026913960400191505060405180910390fd5b428311620005f2576040517f08c379a000000000000000000000000000000000000000000000000000000000815260040180806020018281038252602681526020018062002d9f6026913960400191505060405180910390fd5b42821180156200060157508282105b62000658576040517f08c379a000000000000000000000000000000000000000000000000000000000815260040180806020018281038252604181526020018062002d396041913960600191505060405180910390fd5b60008160ff1611620006b6576040517f08c379a000000000000000000000000000000000000000000000000000000000815260040180806020018281038252602a81526020018062002d0f602a913960400191505060405180910390fd5b8b600360006101000a81548173ffffffffffffffffffffffffffffffffffffffff021916908373ffffffffffffffffffffffffffffffffffffffff1602179055508a600460006101000a81548173ffffffffffffffffffffffffffffffffffffffff021916908373ffffffffffffffffffffffffffffffffffffffff16021790555089600560006101000a81548173ffffffffffffffffffffffffffffffffffffffff021916908373ffffffffffffffffffffffffffffffffffffffff16021790555088600660006101000a81548173ffffffffffffffffffffffffffffffffffffffff021916908373ffffffffffffffffffffffffffffffffffffffff16021790555087600760006101000a81548173ffffffffffffffffffffffffffffffffffffffff021916908373ffffffffffffffffffffffffffffffffffffffff16021790555086600860006101000a81548173ffffffffffffffffffffffffffffffffffffffff021916908373ffffffffffffffffffffffffffffffffffffffff16021790555085600960006101000a81548173ffffffffffffffffffffffffffffffffffffffff021916908373ffffffffffffffffffffffffffffffffffffffff16021790555084600a60006101000a81548173ffffffffffffffffffffffffffffffffffffffff021916908373ffffffffffffffffffffffffffffffffffffffff16021790555083600b60006101000a81548173ffffffffffffffffffffffffffffffffffffffff021916908373ffffffffffffffffffffffffffffffffffffffff16021790555082600c8190555081600e8190555080600d60006101000a81548160ff021916908360ff1602179055506200095f6301e185586200094b428662000bca60201b6200135c1790919060201c565b62000c5460201b62001aee1790919060201c565b600f60006101000a81548160ff021916908360ff160217905550620009b9600360009054906101000a900473ffffffffffffffffffffffffffffffffffffffff166b02a649c112686927b400000062000ce560201b60201c565b620009f9600460009054906101000a900473ffffffffffffffffffffffffffffffffffffffff166b09b18ab5df7180b6b800000062000ce560201b60201c565b62000a39600560009054906101000a900473ffffffffffffffffffffffffffffffffffffffff166b07a025705a712ea43800000062000ce560201b60201c565b62000a79600660009054906101000a900473ffffffffffffffffffffffffffffffffffffffff166b04b7af069768bb3a3400000062000ce560201b60201c565b62000ab9600760009054906101000a900473ffffffffffffffffffffffffffffffffffffffff166b02e87669c308736a0400000062000ce560201b60201c565b62000af9600860009054906101000a900473ffffffffffffffffffffffffffffffffffffffff166b01cf389cd46047d03000000062000ce560201b60201c565b62000b39600960009054906101000a900473ffffffffffffffffffffffffffffffffffffffff166b01193dcceea82b99d400000062000ce560201b60201c565b62000b79600a60009054906101000a900473ffffffffffffffffffffffffffffffffffffffff166b01193dcceea82b99d400000062000ce560201b60201c565b62000bb8600b60009054906101000a900473ffffffffffffffffffffffffffffffffffffffff166ab5facfe5b81c365c00000062000ce560201b60201c565b50505050505050505050505062000f38565b60008282111562000c43576040517f08c379a000000000000000000000000000000000000000000000000000000000815260040180806020018281038252601e8152602001807f536166654d6174683a207375627472616374696f6e206f766572666c6f77000081525060200191505060405180910390fd5b600082840390508091505092915050565b600080821162000ccc576040517f08c379a000000000000000000000000000000000000000000000000000000000815260040180806020018281038252601a8152602001807f536166654d6174683a206469766973696f6e206279207a65726f00000000000081525060200191505060405180910390fd5b600082848162000cd857fe5b0490508091505092915050565b600073ffffffffffffffffffffffffffffffffffffffff168273ffffffffffffffffffffffffffffffffffffffff16141562000d89576040517f08c379a000000000000000000000000000000000000000000000000000000000815260040180806020018281038252601f8152602001807f45524332303a206d696e7420746f20746865207a65726f20616464726573730081525060200191505060405180910390fd5b62000da58160025462000eaf60201b620012d41790919060201c565b60028190555062000e03816000808573ffffffffffffffffffffffffffffffffffffffff1673ffffffffffffffffffffffffffffffffffffffff1681526020019081526020016000205462000eaf60201b620012d41790919060201c565b6000808473ffffffffffffffffffffffffffffffffffffffff1673ffffffffffffffffffffffffffffffffffffffff168152602001908152602001600020819055508173ffffffffffffffffffffffffffffffffffffffff16600073ffffffffffffffffffffffffffffffffffffffff167fddf252ad1be2c89b69c2b068fc378daa952ba7f163c4a11628f55a4df523b3ef836040518082815260200191505060405180910390a35050565b60008082840190508381101562000f2e576040517f08c379a000000000000000000000000000000000000000000000000000000000815260040180806020018281038252601b8152602001807f536166654d6174683a206164646974696f6e206f766572666c6f77000000000081525060200191505060405180910390fd5b8091505092915050565b611d788062000f486000396000f3fe608060405234801561001057600080fd5b50600436106101da5760003560e01c80636cc5c0fd11610104578063a9059cbb116100a2578063dee28f7811610071578063dee28f781461088f578063f555a640146108ad578063f5eeb23e146108f7578063fe28a81514610915576101da565b8063a9059cbb1461076f578063b9a37183146107d5578063c07eadc7146107f9578063dd62ed3e14610817576101da565b80638b4fe3b8116100de5780638b4fe3b814610635578063a457c2d71461067f578063a60f7ae4146106e5578063a8942ed114610751576101da565b80636cc5c0fd1461057557806370a08231146105bf578063767c2e2d14610617576101da565b80633695f71c1161017c57806353d4edba1161014b57806353d4edba146104d157806356569eaa146104ef578063621005d71461050d578063680a8ca514610557576101da565b80633695f71c146103b957806336ec6b8e14610403578063395093511461044d5780633a34b6c6146104b3576101da565b806318160ddd116101b857806318160ddd146102ad5780631c5e933f146102cb57806323b872dd146102e95780632f74c82e1461036f576101da565b8063095ea7b3146101df578063102265fb1461024557806312d8829f14610263575b600080fd5b61022b600480360360408110156101f557600080fd5b81019080803573ffffffffffffffffffffffffffffffffffffffff1690602001909291908035906020019092919050505061095f565b604051808215151515815260200191505060405180910390f35b61024d610976565b6040518082815260200191505060405180910390f35b61026b610986565b604051808273ffffffffffffffffffffffffffffffffffffffff1673ffffffffffffffffffffffffffffffffffffffff16815260200191505060405180910390f35b6102b56109ac565b6040518082815260200191505060405180910390f35b6102d36109b6565b6040518082815260200191505060405180910390f35b610355600480360360608110156102ff57600080fd5b81019080803573ffffffffffffffffffffffffffffffffffffffff169060200190929190803573ffffffffffffffffffffffffffffffffffffffff169060200190929190803590602001909291905050506109c6565b604051808215151515815260200191505060405180910390f35b610377610ab9565b604051808273ffffffffffffffffffffffffffffffffffffffff1673ffffffffffffffffffffffffffffffffffffffff16815260200191505060405180910390f35b6103c1610adf565b604051808273ffffffffffffffffffffffffffffffffffffffff1673ffffffffffffffffffffffffffffffffffffffff16815260200191505060405180910390f35b61040b610b05565b604051808273ffffffffffffffffffffffffffffffffffffffff1673ffffffffffffffffffffffffffffffffffffffff16815260200191505060405180910390f35b6104996004803603604081101561046357600080fd5b81019080803573ffffffffffffffffffffffffffffffffffffffff16906020019092919080359060200190929190505050610b2b565b604051808215151515815260200191505060405180910390f35b6104bb610bd0565b6040518082815260200191505060405180910390f35b6104d9610be0565b6040518082815260200191505060405180910390f35b6104f7610bf0565b6040518082815260200191505060405180910390f35b610515610bf6565b604051808273ffffffffffffffffffffffffffffffffffffffff1673ffffffffffffffffffffffffffffffffffffffff16815260200191505060405180910390f35b61055f610c1c565b6040518082815260200191505060405180910390f35b61057d610c2c565b604051808273ffffffffffffffffffffffffffffffffffffffff1673ffffffffffffffffffffffffffffffffffffffff16815260200191505060405180910390f35b610601600480360360208110156105d557600080fd5b81019080803573ffffffffffffffffffffffffffffffffffffffff169060200190929190505050610c52565b6040518082815260200191505060405180910390f35b61061f610c9a565b6040518082815260200191505060405180910390f35b61063d610caa565b604051808273ffffffffffffffffffffffffffffffffffffffff1673ffffffffffffffffffffffffffffffffffffffff16815260200191505060405180910390f35b6106cb6004803603604081101561069557600080fd5b81019080803573ffffffffffffffffffffffffffffffffffffffff16906020019092919080359060200190929190505050610cd0565b604051808215151515815260200191505060405180910390f35b610734600480360360408110156106fb57600080fd5b81019080803573ffffffffffffffffffffffffffffffffffffffff169060200190929190803560ff169060200190929190505050610d75565b604051808381526020018281526020019250505060405180910390f35b610759610da6565b6040518082815260200191505060405180910390f35b6107bb6004803603604081101561078557600080fd5b81019080803573ffffffffffffffffffffffffffffffffffffffff16906020019092919080359060200190929190505050610db5565b604051808215151515815260200191505060405180910390f35b6107dd610e3e565b604051808260ff1660ff16815260200191505060405180910390f35b610801610e51565b6040518082815260200191505060405180910390f35b6108796004803603604081101561082d57600080fd5b81019080803573ffffffffffffffffffffffffffffffffffffffff169060200190929190803573ffffffffffffffffffffffffffffffffffffffff169060200190929190505050610e61565b6040518082815260200191505060405180910390f35b610897610ee8565b6040518082815260200191505060405180910390f35b6108b5610ef8565b604051808273ffffffffffffffffffffffffffffffffffffffff1673ffffffffffffffffffffffffffffffffffffffff16815260200191505060405180910390f35b6108ff610f1e565b6040518082815260200191505060405180910390f35b61091d610f24565b604051808273ffffffffffffffffffffffffffffffffffffffff1673ffffffffffffffffffffffffffffffffffffffff16815260200191505060405180910390f35b600061096c338484610f4a565b6001905092915050565b6b02a649c112686927b400000081565b600960009054906101000a900473ffffffffffffffffffffffffffffffffffffffff1681565b6000600254905090565b6b04b7af069768bb3a3400000081565b6000600460009054906101000a900473ffffffffffffffffffffffffffffffffffffffff1673ffffffffffffffffffffffffffffffffffffffff168473ffffffffffffffffffffffffffffffffffffffff161415610a2f57610a29848484611141565b50610ab2565b600360009054906101000a900473ffffffffffffffffffffffffffffffffffffffff1673ffffffffffffffffffffffffffffffffffffffff168473ffffffffffffffffffffffffffffffffffffffff1614158015610a8e5750600c5442105b15610aa457610a9e8484846111f2565b50610ab1565b610aaf848484611141565b505b5b9392505050565b600b60009054906101000a900473ffffffffffffffffffffffffffffffffffffffff1681565b600760009054906101000a900473ffffffffffffffffffffffffffffffffffffffff1681565b600860009054906101000a900473ffffffffffffffffffffffffffffffffffffffff1681565b6000610bc63384610bc185600160003373ffffffffffffffffffffffffffffffffffffffff1673ffffffffffffffffffffffffffffffffffffffff16815260200190815260200160002060008973ffffffffffffffffffffffffffffffffffffffff1673ffffffffffffffffffffffffffffffffffffffff168152602001908152602001600020546112d490919063ffffffff16565b610f4a565b6001905092915050565b6b01cf389cd46047d03000000081565b6b01193dcceea82b99d400000081565b600e5481565b600a60009054906101000a900473ffffffffffffffffffffffffffffffffffffffff1681565b6b07a025705a712ea43800000081565b600560009054906101000a900473ffffffffffffffffffffffffffffffffffffffff1681565b60008060008373ffffffffffffffffffffffffffffffffffffffff1673ffffffffffffffffffffffffffffffffffffffff168152602001908152602001600020549050919050565b6b02e87669c308736a0400000081565b600360009054906101000a900473ffffffffffffffffffffffffffffffffffffffff1681565b6000610d6b3384610d6685600160003373ffffffffffffffffffffffffffffffffffffffff1673ffffffffffffffffffffffffffffffffffffffff16815260200190815260200160002060008973ffffffffffffffffffffffffffffffffffffffff1673ffffffffffffffffffffffffffffffffffffffff1681526020019081526020016000205461135c90919063ffffffff16565b610f4a565b6001905092915050565b6010602052816000526040600020602052806000526040600020600091509150508060000154908060010154905082565b6ab5facfe5b81c365c00000081565b6000600360009054906101000a900473ffffffffffffffffffffffffffffffffffffffff1673ffffffffffffffffffffffffffffffffffffffff163373ffffffffffffffffffffffffffffffffffffffff1614158015610e165750600c5442105b15610e2c57610e263384846113e5565b50610e38565b610e368383611403565b505b92915050565b600d60009054906101000a900460ff1681565b6b09b18ab5df7180b6b800000081565b6000600160008473ffffffffffffffffffffffffffffffffffffffff1673ffffffffffffffffffffffffffffffffffffffff16815260200190815260200160002060008373ffffffffffffffffffffffffffffffffffffffff1673ffffffffffffffffffffffffffffffffffffffff16815260200190815260200160002054905092915050565b6b01193dcceea82b99d400000081565b600460009054906101000a900473ffffffffffffffffffffffffffffffffffffffff1681565b600c5481565b600660009054906101000a900473ffffffffffffffffffffffffffffffffffffffff1681565b600073ffffffffffffffffffffffffffffffffffffffff168373ffffffffffffffffffffffffffffffffffffffff161415610fd0576040517f08c379a0000000000000000000000000000000000000000000000000000000008152600401808060200182810382526024815260200180611cff6024913960400191505060405180910390fd5b600073ffffffffffffffffffffffffffffffffffffffff168273ffffffffffffffffffffffffffffffffffffffff161415611056576040517f08c379a0000000000000000000000000000000000000000000000000000000008152600401808060200182810382526022815260200180611c276022913960400191505060405180910390fd5b80600160008573ffffffffffffffffffffffffffffffffffffffff1673ffffffffffffffffffffffffffffffffffffffff16815260200190815260200160002060008473ffffffffffffffffffffffffffffffffffffffff1673ffffffffffffffffffffffffffffffffffffffff168152602001908152602001600020819055508173ffffffffffffffffffffffffffffffffffffffff168373ffffffffffffffffffffffffffffffffffffffff167f8c5be1e5ebec7d5bd14f71427d1e84f3dd0314c0f7b2291e5b200ac8c7c3b925836040518082815260200191505060405180910390a3505050565b600061114e84848461141a565b6111e784336111e285600160008a73ffffffffffffffffffffffffffffffffffffffff1673ffffffffffffffffffffffffffffffffffffffff16815260200190815260200160002060003373ffffffffffffffffffffffffffffffffffffffff1673ffffffffffffffffffffffffffffffffffffffff1681526020019081526020016000205461135c90919063ffffffff16565b610f4a565b600190509392505050565b60006111fd84610c52565b821115611255576040517f08c379a000000000000000000000000000000000000000000000000000000000815260040180806020018281038252602a815260200180611d23602a913960400191505060405180910390fd5b61125f8433610e61565b8211156112b7576040517f08c379a0000000000000000000000000000000000000000000000000000000008152600401808060200182810382526040815260200180611cbf6040913960400191505060405180910390fd5b6112c184836116b6565b6112cc848484611141565b509392505050565b600080828401905083811015611352576040517f08c379a000000000000000000000000000000000000000000000000000000000815260040180806020018281038252601b8152602001807f536166654d6174683a206164646974696f6e206f766572666c6f77000000000081525060200191505060405180910390fd5b8091505092915050565b6000828211156113d4576040517f08c379a000000000000000000000000000000000000000000000000000000000815260040180806020018281038252601e8152602001807f536166654d6174683a207375627472616374696f6e206f766572666c6f77000081525060200191505060405180910390fd5b600082840390508091505092915050565b60006113f184836116b6565b6113fb8383611403565b509392505050565b600061141033848461141a565b6001905092915050565b600073ffffffffffffffffffffffffffffffffffffffff168373ffffffffffffffffffffffffffffffffffffffff1614156114a0576040517f08c379a0000000000000000000000000000000000000000000000000000000008152600401808060200182810382526025815260200180611c9a6025913960400191505060405180910390fd5b600073ffffffffffffffffffffffffffffffffffffffff168273ffffffffffffffffffffffffffffffffffffffff161415611526576040517f08c379a0000000000000000000000000000000000000000000000000000000008152600401808060200182810382526023815260200180611c046023913960400191505060405180910390fd5b611577816000808673ffffffffffffffffffffffffffffffffffffffff1673ffffffffffffffffffffffffffffffffffffffff1681526020019081526020016000205461135c90919063ffffffff16565b6000808573ffffffffffffffffffffffffffffffffffffffff1673ffffffffffffffffffffffffffffffffffffffff1681526020019081526020016000208190555061160a816000808573ffffffffffffffffffffffffffffffffffffffff1673ffffffffffffffffffffffffffffffffffffffff168152602001908152602001600020546112d490919063ffffffff16565b6000808473ffffffffffffffffffffffffffffffffffffffff1673ffffffffffffffffffffffffffffffffffffffff168152602001908152602001600020819055508173ffffffffffffffffffffffffffffffffffffffff168373ffffffffffffffffffffffffffffffffffffffff167fddf252ad1be2c89b69c2b068fc378daa952ba7f163c4a11628f55a4df523b3ef836040518082815260200191505060405180910390a3505050565b600073ffffffffffffffffffffffffffffffffffffffff168273ffffffffffffffffffffffffffffffffffffffff161415611759576040517f08c379a00000000000000000000000000000000000000000000000000000000081526004018080602001828103825260198152602001807f496e76616c69642072656c656173696e6720616464726573730000000000000081525060200191505060405180910390fd5b600081116117cf576040517f08c379a00000000000000000000000000000000000000000000000000000000081526004018080602001828103825260158152602001807f496e76616c69642072656c656173652076616c7565000000000000000000000081525060200191505060405180910390fd5b600e544211611846576040517f08c379a000000000000000000000000000000000000000000000000000000000815260040180806020018281038252601f8152602001807f436c69666620706572696f64206973206e6f742072656163686564207965740081525060200191505060405180910390fd5b600061185183610c52565b9050600081116118c9576040517f08c379a00000000000000000000000000000000000000000000000000000000081526004018080602001828103825260128152602001807f756e737566666963656e7420746f6b656e73000000000000000000000000000081525060200191505060405180910390fd5b42600c541115611ae95760006118ea42600c5461135c90919063ffffffff16565b905060006119056301e1855883611aee90919063ffffffff16565b90506000601060008773ffffffffffffffffffffffffffffffffffffffff1673ffffffffffffffffffffffffffffffffffffffff168152602001908152602001600020600083600f60009054906101000a900460ff160360ff1660ff1681526020019081526020016000209050600081600101541415611a1c578381600001819055506119c060646119b2600d60009054906101000a900460ff1660ff1687611b7d90919063ffffffff16565b611aee90919063ffffffff16565b8510611a17576040517f08c379a0000000000000000000000000000000000000000000000000000000008152600401808060200182810382526030815260200180611c496030913960400191505060405180910390fd5b611ac6565b611a586064611a4a600d60009054906101000a900460ff1660ff168460000154611b7d90919063ffffffff16565b611aee90919063ffffffff16565b611a6f8683600101546112d490919063ffffffff16565b10611ac5576040517f08c379a0000000000000000000000000000000000000000000000000000000008152600401808060200182810382526030815260200180611c496030913960400191505060405180910390fd5b5b611add8582600101546112d490919063ffffffff16565b81600101819055505050505b505050565b6000808211611b65576040517f08c379a000000000000000000000000000000000000000000000000000000000815260040180806020018281038252601a8152602001807f536166654d6174683a206469766973696f6e206279207a65726f00000000000081525060200191505060405180910390fd5b6000828481611b7057fe5b0490508091505092915050565b600080831415611b905760009050611bfd565b6000828402905082848281611ba157fe5b0414611bf8576040517f08c379a0000000000000000000000000000000000000000000000000000000008152600401808060200182810382526021815260200180611c796021913960400191505060405180910390fd5b809150505b9291505056fe45524332303a207472616e7366657220746f20746865207a65726f206164647265737345524332303a20617070726f766520746f20746865207a65726f206164647265737343616e6e6f742072656c65617365206d6f7265207468616e2074686520796561726c792072656c656173652072617465536166654d6174683a206d756c7469706c69636174696f6e206f766572666c6f7745524332303a207472616e736665722066726f6d20746865207a65726f206164647265737353656e646572206e6f7420616c6c6f77656420746f2072656c6561736520616e64207472616e73666572207468697320616d6f756e74206f6620746f6b656e7345524332303a20617070726f76652066726f6d20746865207a65726f20616464726573734163636f756e7420646f6573206e6f7420686f6c64207468697320616d6f756e74206f6620746f6b656ea165627a7a72305820f041294ffa648956f128fa680c65a2935a5d48d58e6d3101c5fb100f5ee2578c0029496e76616c6964207075626c69632073616c652062656e65666963696172792061646472657373496e76616c69642064656c6976657261626c65732062656e6566696369617279206164647265737352656c6561736520796561726c792072617465206d7573742062652067726561746572207468616e2030436c69666620656e642064617465206d75737420696e207468652066757475726520616e64206265666f7265207468652076657374696e6720656e642064617465496e76616c6964206d61726b6574696e672062656e6566696369617279206164647265737356657374696e6720656e642064617465206d75737420626520696e2074686520667574757265496e76616c696420666f756e646174696f6e2062656e65666963696172792061646472657373496e76616c696420707269766174652073616c652062656e65666963696172792061646472657373496e76616c6964206e6574776f726b20706f6f6c2062656e65666963696172792061646472657373496e76616c696420656e68616e63656d656e742062656e65666963696172792061646472657373496e76616c6964206578636820706f6f6c2062656e65666963696172792061646472657373",
  "source": "pragma solidity ^0.5.0;\n\nimport \"openzeppelin-solidity/contracts/token/ERC20/ERC20.sol\";\nimport \"openzeppelin-solidity/contracts/math/SafeMath.sol\";\n\ncontract UnirisToken is ERC20 {\n\n  event DebugInt(int indexed x);\n\n  /* TOKEN ERC20 PROPERTIES */\n\n  string constant NAME = \"UnirisToken\";\n  string constant SYMBOL = \"UCO\";\n  uint8 constant DECIMALS = 18;\n\n  /* TOKEN DISTRIBUTION */\n\n  // 8.2% for the private sale\n  uint256 public constant private_sale_supply = 820000000000000000000000000;\n  // 30% for the public sale\n  uint256 public constant public_sale_supply = 3000000000000000000000000000;\n  // 23.6% for the deliverables\n  uint256 public constant deliverable_supply = 2360000000000000000000000000;\n  // 14.6% for the network pool\n  uint256 public constant network_pool_supply = 1460000000000000000000000000;\n  // 9% for the enhancements\n  uint256 public constant enhancement_supply = 900000000000000000000000000;\n  // 5.6% for the team\n  uint256 public constant team_supply = 560000000000000000000000000;\n  //3.4% for the Exch. Pool\n  uint256 public constant exch_pool_supply = 340000000000000000000000000;\n  //3.4% for the marketing\n  uint256 public constant marketing_supply = 340000000000000000000000000;\n  //2.2% for the foundation\n  uint256 public constant foundation_supply = 220000000000000000000000000;\n\n  /* BENIFICIARIES */\n\n  address public private_sale_beneficiary;\n  address public public_sale_beneficiary;\n  address public deliverables_beneficiary;\n  address public network_pool_beneficiary;\n  address public enhancement_beneficiary;\n  address public team_beneficiary;\n  address public exch_pool_beneficiary;\n  address public marketing_beneficiary;\n  address public foundation_beneficiary;\n\n  /* VESTING */\n\n  //End date of the vesting period (in seconds) //2 years\n  uint256 public vesting_end_date;\n  //How many percent we can release per year during the vesting period\n  uint8 public release_yearly_rate;\n  //Cliff vesting period to prevent transfer except for public sale beneficiaries (in seconds)\n  uint256 public cliff_end_date; //0 year\n\n  uint256 constant seconds_per_years = 31556952;\n  uint8 private vesting_years;\n\n  struct yearly_release {\n    uint256 start_with;\n    uint256 amount;\n  }\n\n  mapping(address => mapping(uint8 => yearly_release)) public releases;\n\n  constructor(\n    address _private_sale_beneficiary,\n    address _public_sale_beneficiary,\n    address _deliverables_beneficiary,\n    address _network_pool_beneficiary,\n    address _enhancement_beneficiary,\n    address _team_beneficiary,\n    address _exch_pool_beneficiary,\n    address _marketing_beneficiary,\n    address _foundation_beneficiary,\n    uint256 _vesting_end_date,\n    uint256 _cliff_end_date,\n    uint8 _release_yearly_rate) public {\n\n    require(_private_sale_beneficiary != address(0), \"Invalid private sale beneficiary address\");\n    require(_public_sale_beneficiary != address(0), \"Invalid public sale beneficiary address\");\n    require(_deliverables_beneficiary != address(0), \"Invalid deliverables beneficiary address\");\n    require(_network_pool_beneficiary != address(0), \"Invalid network pool beneficiary address\");\n    require(_enhancement_beneficiary != address(0), \"Invalid enhancement beneficiary address\");\n    require(_team_beneficiary != address(0), \"Invalid team beneficiary address\");\n    require(_exch_pool_beneficiary != address(0), \"Invalid exch pool beneficiary address\");\n    require(_marketing_beneficiary != address(0), \"Invalid marketing beneficiary address\");\n    require(_foundation_beneficiary != address(0), \"Invalid foundation beneficiary address\");\n\n    require(_vesting_end_date > now, \"Vesting end date must be in the future\");\n    require(_cliff_end_date > now && _cliff_end_date < _vesting_end_date, \"Cliff end date must in the future and before the vesting end date\");\n    require(_release_yearly_rate > 0, \"Release yearly rate must be greater than 0\");\n\n    private_sale_beneficiary = _private_sale_beneficiary;\n    public_sale_beneficiary = _public_sale_beneficiary;\n    deliverables_beneficiary = _deliverables_beneficiary;\n    network_pool_beneficiary = _network_pool_beneficiary;\n    enhancement_beneficiary = _enhancement_beneficiary;\n    team_beneficiary = _team_beneficiary;\n    exch_pool_beneficiary = _exch_pool_beneficiary;\n    marketing_beneficiary = _marketing_beneficiary;\n    foundation_beneficiary = _foundation_beneficiary;\n\n    vesting_end_date = _vesting_end_date;\n    cliff_end_date = _cliff_end_date;\n    release_yearly_rate = _release_yearly_rate;\n    vesting_years = uint8(_vesting_end_date.sub(now).div(seconds_per_years));\n\n    _mint(private_sale_beneficiary, private_sale_supply);\n    _mint(public_sale_beneficiary, public_sale_supply);\n    _mint(deliverables_beneficiary, deliverable_supply);\n    _mint(network_pool_beneficiary, network_pool_supply);\n    _mint(enhancement_beneficiary, enhancement_supply);\n    _mint(team_beneficiary, team_supply);\n    _mint(exch_pool_beneficiary, exch_pool_supply);\n    _mint(marketing_beneficiary, marketing_supply);\n    _mint(foundation_beneficiary, foundation_supply);\n  }\n\n  function transfer(address to, uint256 value) public returns (bool) {\n    //Only private sale beneficiary can do direct transfer during the vesting period ignoring the cliff period\n    if (msg.sender != private_sale_beneficiary && now < vesting_end_date) {\n      releaseAndTransfer(msg.sender, to, value);\n    } else {\n      super.transfer(to, value);\n    }\n  }\n\n  function transferFrom(address from, address to, uint256 value) public returns (bool) {\n    //Only approved address from the spent public sale beneficiary are allowed to be transfered\n    //during the vesting period ignoring the cliff period\n    if (from == public_sale_beneficiary) {\n      super.transferFrom(from, to, value);\n    }\n    else {\n      //Only private sale beneficiary can do direct transfer during the vesting period ignoring the cliff period\n      if (from != private_sale_beneficiary && now < vesting_end_date) {\n        releaseAndTransferFrom(from, to, value);\n      } else {\n        super.transferFrom(from, to, value);\n      }\n    }\n  }\n\n  function releaseAndTransfer(address from, address to, uint256 value) internal returns (bool) {\n    checkAndUpdateRelease(from, value);\n    super.transfer(to, value);\n  }\n\n  function releaseAndTransferFrom(address from, address to, uint256 value) internal returns (bool) {\n    require(value <= balanceOf(from), \"Account does not hold this amount of token\");\n    require(value <= allowance(from, msg.sender), \"Sender not allowed to release and transfer this amount of tokens\");\n    checkAndUpdateRelease(from, value);\n    super.transferFrom(from, to, value);\n  }\n\n  function checkAndUpdateRelease(address from, uint256 value) internal {\n    require(from != address(0), \"Invalid releasing address\");\n    require(value > 0, \"Invalid release value\");\n    require(now > cliff_end_date, \"Cliff period is not reached yet\");\n    uint256 tokenAmount = balanceOf(from);\n    require(tokenAmount > 0, \"unsufficent tokens\");\n\n    if (vesting_end_date > now) {\n      uint256 remaining_vesting_period = vesting_end_date.sub(now);\n      uint8 remaining_vesting_years = uint8(remaining_vesting_period.div(seconds_per_years));\n\n      yearly_release storage current_year_release = releases[from][vesting_years - remaining_vesting_years];\n\n      //When it's the first release for this year\n      if (current_year_release.amount == 0) {\n        current_year_release.start_with = tokenAmount;\n        //Check if the amount desired if less than 20% for the current balance\n        require(value < tokenAmount.mul(release_yearly_rate).div(100), \"Cannot release more than the yearly release rate\");\n      }\n      else {\n        //Check if the amount desired if less than the 20% from the yearly balance\n        require(current_year_release.amount.add(value) < current_year_release.start_with.mul(release_yearly_rate).div(100), \"Cannot release more than the yearly release rate\");\n      }\n\n      current_year_release.amount = current_year_release.amount.add(value);\n    }\n\n  }\n\n}",
  "sourcePath": "/Users/samuel/Documents/code/nodejs/uniris_erc_20/contracts/UnirisToken.sol",
  "compiler": {
    "name": "solc",
    "version": "0.5.8+commit.23d335f2.Emscripten.clang"
  },
  "schemaVersion": "3.0.16",
  "updatedAt": "2019-11-04T15:10:22.139Z",
  "devdoc": {
    "methods": {
      "allowance(address,address)": {
        "details": "See `IERC20.allowance`."
      },
      "approve(address,uint256)": {
        "details": "See `IERC20.approve`.     * Requirements:     * - `spender` cannot be the zero address."
      },
      "balanceOf(address)": {
        "details": "See `IERC20.balanceOf`."
      },
      "decreaseAllowance(address,uint256)": {
        "details": "Atomically decreases the allowance granted to `spender` by the caller.     * This is an alternative to `approve` that can be used as a mitigation for problems described in `IERC20.approve`.     * Emits an `Approval` event indicating the updated allowance.     * Requirements:     * - `spender` cannot be the zero address. - `spender` must have allowance for the caller of at least `subtractedValue`."
      },
      "increaseAllowance(address,uint256)": {
        "details": "Atomically increases the allowance granted to `spender` by the caller.     * This is an alternative to `approve` that can be used as a mitigation for problems described in `IERC20.approve`.     * Emits an `Approval` event indicating the updated allowance.     * Requirements:     * - `spender` cannot be the zero address."
      },
      "totalSupply()": {
        "details": "See `IERC20.totalSupply`."
      }
    }
  },
  "userdoc": {
    "methods": {}
  }
}