{
  "contractName": "UnirisToken",
  "abi": [
    {
      "constant": true,
      "inputs": [],
      "name": "name",
      "outputs": [
        {
          "name": "",
          "type": "string"
        }
      ],
      "payable": false,
      "stateMutability": "view",
      "type": "function"
    },
    {
      "constant": false,
      "inputs": [
        {
          "name": "spender",
          "type": "address"
        },
        {
          "name": "value",
          "type": "uint256"
        }
      ],
      "name": "approve",
      "outputs": [
        {
          "name": "",
          "type": "bool"
        }
      ],
      "payable": false,
      "stateMutability": "nonpayable",
      "type": "function"
    },
    {
      "constant": true,
      "inputs": [],
      "name": "private_sale_supply",
      "outputs": [
        {
          "name": "",
          "type": "uint256"
        }
      ],
      "payable": false,
      "stateMutability": "view",
      "type": "function"
    },
    {
      "constant": true,
      "inputs": [],
      "name": "exch_pool_beneficiary",
      "outputs": [
        {
          "name": "",
          "type": "address"
        }
      ],
      "payable": false,
      "stateMutability": "view",
      "type": "function"
    },
    {
      "constant": true,
      "inputs": [],
      "name": "totalSupply",
      "outputs": [
        {
          "name": "",
          "type": "uint256"
        }
      ],
      "payable": false,
      "stateMutability": "view",
      "type": "function"
    },
    {
      "constant": true,
      "inputs": [],
      "name": "network_pool_supply",
      "outputs": [
        {
          "name": "",
          "type": "uint256"
        }
      ],
      "payable": false,
      "stateMutability": "view",
      "type": "function"
    },
    {
      "constant": true,
      "inputs": [],
      "name": "foundation_beneficiary",
      "outputs": [
        {
          "name": "",
          "type": "address"
        }
      ],
      "payable": false,
      "stateMutability": "view",
      "type": "function"
    },
    {
      "constant": true,
      "inputs": [],
      "name": "decimals",
      "outputs": [
        {
          "name": "",
          "type": "uint8"
        }
      ],
      "payable": false,
      "stateMutability": "view",
      "type": "function"
    },
    {
      "constant": true,
      "inputs": [],
      "name": "enhancement_beneficiary",
      "outputs": [
        {
          "name": "",
          "type": "address"
        }
      ],
      "payable": false,
      "stateMutability": "view",
      "type": "function"
    },
    {
      "constant": true,
      "inputs": [],
      "name": "team_beneficiary",
      "outputs": [
        {
          "name": "",
          "type": "address"
        }
      ],
      "payable": false,
      "stateMutability": "view",
      "type": "function"
    },
    {
      "constant": false,
      "inputs": [
        {
          "name": "spender",
          "type": "address"
        },
        {
          "name": "addedValue",
          "type": "uint256"
        }
      ],
      "name": "increaseAllowance",
      "outputs": [
        {
          "name": "",
          "type": "bool"
        }
      ],
      "payable": false,
      "stateMutability": "nonpayable",
      "type": "function"
    },
    {
      "constant": true,
      "inputs": [],
      "name": "team_supply",
      "outputs": [
        {
          "name": "",
          "type": "uint256"
        }
      ],
      "payable": false,
      "stateMutability": "view",
      "type": "function"
    },
    {
      "constant": false,
      "inputs": [],
      "name": "unpause",
      "outputs": [],
      "payable": false,
      "stateMutability": "nonpayable",
      "type": "function"
    },
    {
      "constant": true,
      "inputs": [
        {
          "name": "account",
          "type": "address"
        }
      ],
      "name": "isPauser",
      "outputs": [
        {
          "name": "",
          "type": "bool"
        }
      ],
      "payable": false,
      "stateMutability": "view",
      "type": "function"
    },
    {
      "constant": true,
      "inputs": [],
      "name": "exch_pool_supply",
      "outputs": [
        {
          "name": "",
          "type": "uint256"
        }
      ],
      "payable": false,
      "stateMutability": "view",
      "type": "function"
    },
    {
      "constant": true,
      "inputs": [],
      "name": "paused",
      "outputs": [
        {
          "name": "",
          "type": "bool"
        }
      ],
      "payable": false,
      "stateMutability": "view",
      "type": "function"
    },
    {
      "constant": true,
      "inputs": [],
      "name": "marketing_beneficiary",
      "outputs": [
        {
          "name": "",
          "type": "address"
        }
      ],
      "payable": false,
      "stateMutability": "view",
      "type": "function"
    },
    {
      "constant": true,
      "inputs": [],
      "name": "deliverable_supply",
      "outputs": [
        {
          "name": "",
          "type": "uint256"
        }
      ],
      "payable": false,
      "stateMutability": "view",
      "type": "function"
    },
    {
      "constant": true,
      "inputs": [],
      "name": "deliverables_beneficiary",
      "outputs": [
        {
          "name": "",
          "type": "address"
        }
      ],
      "payable": false,
      "stateMutability": "view",
      "type": "function"
    },
    {
      "constant": false,
      "inputs": [],
      "name": "renouncePauser",
      "outputs": [],
      "payable": false,
      "stateMutability": "nonpayable",
      "type": "function"
    },
    {
      "constant": true,
      "inputs": [
        {
          "name": "account",
          "type": "address"
        }
      ],
      "name": "balanceOf",
      "outputs": [
        {
          "name": "",
          "type": "uint256"
        }
      ],
      "payable": false,
      "stateMutability": "view",
      "type": "function"
    },
    {
      "constant": true,
      "inputs": [],
      "name": "enhancement_supply",
      "outputs": [
        {
          "name": "",
          "type": "uint256"
        }
      ],
      "payable": false,
      "stateMutability": "view",
      "type": "function"
    },
    {
      "constant": false,
      "inputs": [
        {
          "name": "account",
          "type": "address"
        }
      ],
      "name": "addPauser",
      "outputs": [],
      "payable": false,
      "stateMutability": "nonpayable",
      "type": "function"
    },
    {
      "constant": false,
      "inputs": [],
      "name": "pause",
      "outputs": [],
      "payable": false,
      "stateMutability": "nonpayable",
      "type": "function"
    },
    {
      "constant": true,
      "inputs": [],
      "name": "private_sale_beneficiary",
      "outputs": [
        {
          "name": "",
          "type": "address"
        }
      ],
      "payable": false,
      "stateMutability": "view",
      "type": "function"
    },
    {
      "constant": true,
      "inputs": [],
      "name": "symbol",
      "outputs": [
        {
          "name": "",
          "type": "string"
        }
      ],
      "payable": false,
      "stateMutability": "view",
      "type": "function"
    },
    {
      "constant": false,
      "inputs": [
        {
          "name": "spender",
          "type": "address"
        },
        {
          "name": "subtractedValue",
          "type": "uint256"
        }
      ],
      "name": "decreaseAllowance",
      "outputs": [
        {
          "name": "",
          "type": "bool"
        }
      ],
      "payable": false,
      "stateMutability": "nonpayable",
      "type": "function"
    },
    {
      "constant": true,
      "inputs": [],
      "name": "foundation_supply",
      "outputs": [
        {
          "name": "",
          "type": "uint256"
        }
      ],
      "payable": false,
      "stateMutability": "view",
      "type": "function"
    },
    {
      "constant": true,
      "inputs": [],
      "name": "public_sale_supply",
      "outputs": [
        {
          "name": "",
          "type": "uint256"
        }
      ],
      "payable": false,
      "stateMutability": "view",
      "type": "function"
    },
    {
      "constant": true,
      "inputs": [
        {
          "name": "owner",
          "type": "address"
        },
        {
          "name": "spender",
          "type": "address"
        }
      ],
      "name": "allowance",
      "outputs": [
        {
          "name": "",
          "type": "uint256"
        }
      ],
      "payable": false,
      "stateMutability": "view",
      "type": "function"
    },
    {
      "constant": true,
      "inputs": [],
      "name": "marketing_supply",
      "outputs": [
        {
          "name": "",
          "type": "uint256"
        }
      ],
      "payable": false,
      "stateMutability": "view",
      "type": "function"
    },
    {
      "constant": true,
      "inputs": [],
      "name": "public_sale_beneficiary",
      "outputs": [
        {
          "name": "",
          "type": "address"
        }
      ],
      "payable": false,
      "stateMutability": "view",
      "type": "function"
    },
    {
      "constant": true,
      "inputs": [],
      "name": "network_pool_beneficiary",
      "outputs": [
        {
          "name": "",
          "type": "address"
        }
      ],
      "payable": false,
      "stateMutability": "view",
      "type": "function"
    },
    {
      "inputs": [
        {
          "name": "_private_sale_beneficiary",
          "type": "address"
        },
        {
          "name": "_public_sale_beneficiary",
          "type": "address"
        },
        {
          "name": "_deliverables_beneficiary",
          "type": "address"
        },
        {
          "name": "_network_pool_beneficiary",
          "type": "address"
        },
        {
          "name": "_enhancement_beneficiary",
          "type": "address"
        },
        {
          "name": "_team_beneficiary",
          "type": "address"
        },
        {
          "name": "_exch_pool_beneficiary",
          "type": "address"
        },
        {
          "name": "_marketing_beneficiary",
          "type": "address"
        },
        {
          "name": "_foundation_beneficiary",
          "type": "address"
        }
      ],
      "payable": false,
      "stateMutability": "nonpayable",
      "type": "constructor"
    },
    {
      "anonymous": false,
      "inputs": [
        {
          "indexed": false,
          "name": "account",
          "type": "address"
        }
      ],
      "name": "Paused",
      "type": "event"
    },
    {
      "anonymous": false,
      "inputs": [
        {
          "indexed": false,
          "name": "account",
          "type": "address"
        }
      ],
      "name": "Unpaused",
      "type": "event"
    },
    {
      "anonymous": false,
      "inputs": [
        {
          "indexed": true,
          "name": "account",
          "type": "address"
        }
      ],
      "name": "PauserAdded",
      "type": "event"
    },
    {
      "anonymous": false,
      "inputs": [
        {
          "indexed": true,
          "name": "account",
          "type": "address"
        }
      ],
      "name": "PauserRemoved",
      "type": "event"
    },
    {
      "anonymous": false,
      "inputs": [
        {
          "indexed": true,
          "name": "from",
          "type": "address"
        },
        {
          "indexed": true,
          "name": "to",
          "type": "address"
        },
        {
          "indexed": false,
          "name": "value",
          "type": "uint256"
        }
      ],
      "name": "Transfer",
      "type": "event"
    },
    {
      "anonymous": false,
      "inputs": [
        {
          "indexed": true,
          "name": "owner",
          "type": "address"
        },
        {
          "indexed": true,
          "name": "spender",
          "type": "address"
        },
        {
          "indexed": false,
          "name": "value",
          "type": "uint256"
        }
      ],
      "name": "Approval",
      "type": "event"
    },
    {
      "constant": false,
      "inputs": [
        {
          "name": "_to",
          "type": "address"
        },
        {
          "name": "_value",
          "type": "uint256"
        }
      ],
      "name": "transfer",
      "outputs": [
        {
          "name": "success",
          "type": "bool"
        }
      ],
      "payable": false,
      "stateMutability": "nonpayable",
      "type": "function"
    },
    {
      "constant": false,
      "inputs": [
        {
          "name": "_from",
          "type": "address"
        },
        {
          "name": "_to",
          "type": "address"
        },
        {
          "name": "_value",
          "type": "uint256"
        }
      ],
      "name": "transferFrom",
      "outputs": [
        {
          "name": "success",
          "type": "bool"
        }
      ],
      "payable": false,
      "stateMutability": "nonpayable",
      "type": "function"
    }
  ],
  "bytecode": "0x60806040523480156200001157600080fd5b506040516101208062003cb883398101806040526101208110156200003557600080fd5b810190808051906020019092919080519060200190929190805190602001909291908051906020019092919080519060200190929190805190602001909291908051906020019092919080519060200190929190805190602001909291905050506040518060400160405280600b81526020017f556e69726973546f6b656e0000000000000000000000000000000000000000008152506040518060400160405280600381526020017f55434f00000000000000000000000000000000000000000000000000000000008152506012620001153362000afb60201b60201c565b6000600460006101000a81548160ff02191690831515021790555082600590805190602001906200014892919062000f73565b5081600690805190602001906200016192919062000f73565b5080600760006101000a81548160ff021916908360ff160217905550505050600073ffffffffffffffffffffffffffffffffffffffff168973ffffffffffffffffffffffffffffffffffffffff16141562000208576040517f08c379a000000000000000000000000000000000000000000000000000000000815260040180806020018281038252602881526020018062003c1c6028913960400191505060405180910390fd5b600073ffffffffffffffffffffffffffffffffffffffff168873ffffffffffffffffffffffffffffffffffffffff16141562000290576040517f08c379a000000000000000000000000000000000000000000000000000000000815260040180806020018281038252602781526020018062003b606027913960400191505060405180910390fd5b600073ffffffffffffffffffffffffffffffffffffffff168773ffffffffffffffffffffffffffffffffffffffff16141562000318576040517f08c379a000000000000000000000000000000000000000000000000000000000815260040180806020018281038252602881526020018062003b876028913960400191505060405180910390fd5b600073ffffffffffffffffffffffffffffffffffffffff168673ffffffffffffffffffffffffffffffffffffffff161415620003a0576040517f08c379a000000000000000000000000000000000000000000000000000000000815260040180806020018281038252602881526020018062003c446028913960400191505060405180910390fd5b600073ffffffffffffffffffffffffffffffffffffffff168573ffffffffffffffffffffffffffffffffffffffff16141562000428576040517f08c379a000000000000000000000000000000000000000000000000000000000815260040180806020018281038252602781526020018062003c6c6027913960400191505060405180910390fd5b600073ffffffffffffffffffffffffffffffffffffffff168473ffffffffffffffffffffffffffffffffffffffff161415620004cc576040517f08c379a00000000000000000000000000000000000000000000000000000000081526004018080602001828103825260208152602001807f496e76616c6964207465616d2062656e6566696369617279206164647265737381525060200191505060405180910390fd5b600073ffffffffffffffffffffffffffffffffffffffff168373ffffffffffffffffffffffffffffffffffffffff16141562000554576040517f08c379a000000000000000000000000000000000000000000000000000000000815260040180806020018281038252602581526020018062003c936025913960400191505060405180910390fd5b600073ffffffffffffffffffffffffffffffffffffffff168273ffffffffffffffffffffffffffffffffffffffff161415620005dc576040517f08c379a000000000000000000000000000000000000000000000000000000000815260040180806020018281038252602581526020018062003baf6025913960400191505060405180910390fd5b600073ffffffffffffffffffffffffffffffffffffffff168173ffffffffffffffffffffffffffffffffffffffff16141562000664576040517f08c379a000000000000000000000000000000000000000000000000000000000815260040180806020018281038252602681526020018062003bf66026913960400191505060405180910390fd5b88600760016101000a81548173ffffffffffffffffffffffffffffffffffffffff021916908373ffffffffffffffffffffffffffffffffffffffff16021790555087600860006101000a81548173ffffffffffffffffffffffffffffffffffffffff021916908373ffffffffffffffffffffffffffffffffffffffff16021790555086600960006101000a81548173ffffffffffffffffffffffffffffffffffffffff021916908373ffffffffffffffffffffffffffffffffffffffff16021790555085600a60006101000a81548173ffffffffffffffffffffffffffffffffffffffff021916908373ffffffffffffffffffffffffffffffffffffffff16021790555084600b60006101000a81548173ffffffffffffffffffffffffffffffffffffffff021916908373ffffffffffffffffffffffffffffffffffffffff16021790555083600c60006101000a81548173ffffffffffffffffffffffffffffffffffffffff021916908373ffffffffffffffffffffffffffffffffffffffff16021790555082600d60006101000a81548173ffffffffffffffffffffffffffffffffffffffff021916908373ffffffffffffffffffffffffffffffffffffffff16021790555081600e60006101000a81548173ffffffffffffffffffffffffffffffffffffffff021916908373ffffffffffffffffffffffffffffffffffffffff16021790555080600f60006101000a81548173ffffffffffffffffffffffffffffffffffffffff021916908373ffffffffffffffffffffffffffffffffffffffff160217905550620008ed600760019054906101000a900473ffffffffffffffffffffffffffffffffffffffff166b02a649c112686927b400000062000b5c60201b60201c565b6200092d600860009054906101000a900473ffffffffffffffffffffffffffffffffffffffff166b09b18ab5df7180b6b800000062000b5c60201b60201c565b6200096d600960009054906101000a900473ffffffffffffffffffffffffffffffffffffffff166b07a025705a712ea43800000062000b5c60201b60201c565b620009ad600a60009054906101000a900473ffffffffffffffffffffffffffffffffffffffff166b04b7af069768bb3a3400000062000b5c60201b60201c565b620009ed600b60009054906101000a900473ffffffffffffffffffffffffffffffffffffffff166b02e87669c308736a0400000062000b5c60201b60201c565b62000a2d600c60009054906101000a900473ffffffffffffffffffffffffffffffffffffffff166b01cf389cd46047d03000000062000b5c60201b60201c565b62000a6d600d60009054906101000a900473ffffffffffffffffffffffffffffffffffffffff166b01193dcceea82b99d400000062000b5c60201b60201c565b62000aad600e60009054906101000a900473ffffffffffffffffffffffffffffffffffffffff166b01193dcceea82b99d400000062000b5c60201b60201c565b62000aec600f60009054906101000a900473ffffffffffffffffffffffffffffffffffffffff166ab5facfe5b81c365c00000062000b5c60201b60201c565b50505050505050505062001022565b62000b1681600362000d2660201b620025c91790919060201c565b8073ffffffffffffffffffffffffffffffffffffffff167f6719d08c1888103bea251a4ed56406bd0c3e69723c8a1686e017e7bbe159b6f860405160405180910390a250565b600073ffffffffffffffffffffffffffffffffffffffff168273ffffffffffffffffffffffffffffffffffffffff16141562000c00576040517f08c379a000000000000000000000000000000000000000000000000000000000815260040180806020018281038252601f8152602001807f45524332303a206d696e7420746f20746865207a65726f20616464726573730081525060200191505060405180910390fd5b62000c1c8160025462000e0a60201b62001dd01790919060201c565b60028190555062000c7a816000808573ffffffffffffffffffffffffffffffffffffffff1673ffffffffffffffffffffffffffffffffffffffff1681526020019081526020016000205462000e0a60201b62001dd01790919060201c565b6000808473ffffffffffffffffffffffffffffffffffffffff1673ffffffffffffffffffffffffffffffffffffffff168152602001908152602001600020819055508173ffffffffffffffffffffffffffffffffffffffff16600073ffffffffffffffffffffffffffffffffffffffff167fddf252ad1be2c89b69c2b068fc378daa952ba7f163c4a11628f55a4df523b3ef836040518082815260200191505060405180910390a35050565b62000d38828262000e9360201b60201c565b1562000dac576040517f08c379a000000000000000000000000000000000000000000000000000000000815260040180806020018281038252601f8152602001807f526f6c65733a206163636f756e7420616c72656164792068617320726f6c650081525060200191505060405180910390fd5b60018260000160008373ffffffffffffffffffffffffffffffffffffffff1673ffffffffffffffffffffffffffffffffffffffff16815260200190815260200160002060006101000a81548160ff0219169083151502179055505050565b60008082840190508381101562000e89576040517f08c379a000000000000000000000000000000000000000000000000000000000815260040180806020018281038252601b8152602001807f536166654d6174683a206164646974696f6e206f766572666c6f77000000000081525060200191505060405180910390fd5b8091505092915050565b60008073ffffffffffffffffffffffffffffffffffffffff168273ffffffffffffffffffffffffffffffffffffffff16141562000f1c576040517f08c379a000000000000000000000000000000000000000000000000000000000815260040180806020018281038252602281526020018062003bd46022913960400191505060405180910390fd5b8260000160008373ffffffffffffffffffffffffffffffffffffffff1673ffffffffffffffffffffffffffffffffffffffff16815260200190815260200160002060009054906101000a900460ff16905092915050565b828054600181600116156101000203166002900490600052602060002090601f016020900481019282601f1062000fb657805160ff191683800117855562000fe7565b8280016001018555821562000fe7579182015b8281111562000fe657825182559160200191906001019062000fc9565b5b50905062000ff6919062000ffa565b5090565b6200101f91905b808211156200101b57600081600090555060010162001001565b5090565b90565b612b2e80620010326000396000f3fe608060405234801561001057600080fd5b50600436106102115760003560e01c8063621005d71161012557806395d89b41116100ad578063c07eadc71161007c578063c07eadc71461098c578063dd62ed3e146109aa578063dee28f7814610a22578063f555a64014610a40578063fe28a81514610a8a57610211565b806395d89b411461081f578063a457c2d7146108a2578063a8942ed114610908578063a9059cbb1461092657610211565b806370a08231116100f457806370a0823114610711578063767c2e2d1461076957806382dc1ec4146107875780638456cb59146107cb5780638b4fe3b8146107d557610211565b8063621005d714610655578063680a8ca51461069f5780636cc5c0fd146106bd5780636ef8d66d1461070757610211565b8063313ce567116101a85780633a34b6c6116101775780633a34b6c6146105915780633f4ba83a146105af57806346fbf68e146105b957806353d4edba146106155780635c975abb1461063357610211565b8063313ce567146104735780633695f71c1461049757806336ec6b8e146104e1578063395093511461052b57610211565b806318160ddd116101e457806318160ddd146103675780631c5e933f1461038557806323b872dd146103a35780632f74c82e1461042957610211565b806306fdde0314610216578063095ea7b314610299578063102265fb146102ff57806312d8829f1461031d575b600080fd5b61021e610ad4565b6040518080602001828103825283818151815260200191508051906020019080838360005b8381101561025e578082015181840152602081019050610243565b50505050905090810190601f16801561028b5780820380516001836020036101000a031916815260200191505b509250505060405180910390f35b6102e5600480360360408110156102af57600080fd5b81019080803573ffffffffffffffffffffffffffffffffffffffff16906020019092919080359060200190929190505050610b76565b604051808215151515815260200191505060405180910390f35b610307610c0d565b6040518082815260200191505060405180910390f35b610325610c1d565b604051808273ffffffffffffffffffffffffffffffffffffffff1673ffffffffffffffffffffffffffffffffffffffff16815260200191505060405180910390f35b61036f610c43565b6040518082815260200191505060405180910390f35b61038d610c4d565b6040518082815260200191505060405180910390f35b61040f600480360360608110156103b957600080fd5b81019080803573ffffffffffffffffffffffffffffffffffffffff169060200190929190803573ffffffffffffffffffffffffffffffffffffffff16906020019092919080359060200190929190505050610c5d565b604051808215151515815260200191505060405180910390f35b6104316110a2565b604051808273ffffffffffffffffffffffffffffffffffffffff1673ffffffffffffffffffffffffffffffffffffffff16815260200191505060405180910390f35b61047b6110c8565b604051808260ff1660ff16815260200191505060405180910390f35b61049f6110df565b604051808273ffffffffffffffffffffffffffffffffffffffff1673ffffffffffffffffffffffffffffffffffffffff16815260200191505060405180910390f35b6104e9611105565b604051808273ffffffffffffffffffffffffffffffffffffffff1673ffffffffffffffffffffffffffffffffffffffff16815260200191505060405180910390f35b6105776004803603604081101561054157600080fd5b81019080803573ffffffffffffffffffffffffffffffffffffffff1690602001909291908035906020019092919050505061112b565b604051808215151515815260200191505060405180910390f35b6105996111c2565b6040518082815260200191505060405180910390f35b6105b76111d2565b005b6105fb600480360360208110156105cf57600080fd5b81019080803573ffffffffffffffffffffffffffffffffffffffff169060200190929190505050611332565b604051808215151515815260200191505060405180910390f35b61061d61134f565b6040518082815260200191505060405180910390f35b61063b61135f565b604051808215151515815260200191505060405180910390f35b61065d611376565b604051808273ffffffffffffffffffffffffffffffffffffffff1673ffffffffffffffffffffffffffffffffffffffff16815260200191505060405180910390f35b6106a761139c565b6040518082815260200191505060405180910390f35b6106c56113ac565b604051808273ffffffffffffffffffffffffffffffffffffffff1673ffffffffffffffffffffffffffffffffffffffff16815260200191505060405180910390f35b61070f6113d2565b005b6107536004803603602081101561072757600080fd5b81019080803573ffffffffffffffffffffffffffffffffffffffff1690602001909291905050506113dd565b6040518082815260200191505060405180910390f35b610771611425565b6040518082815260200191505060405180910390f35b6107c96004803603602081101561079d57600080fd5b81019080803573ffffffffffffffffffffffffffffffffffffffff169060200190929190505050611435565b005b6107d361149f565b005b6107dd611600565b604051808273ffffffffffffffffffffffffffffffffffffffff1673ffffffffffffffffffffffffffffffffffffffff16815260200191505060405180910390f35b610827611626565b6040518080602001828103825283818151815260200191508051906020019080838360005b8381101561086757808201518184015260208101905061084c565b50505050905090810190601f1680156108945780820380516001836020036101000a031916815260200191505b509250505060405180910390f35b6108ee600480360360408110156108b857600080fd5b81019080803573ffffffffffffffffffffffffffffffffffffffff169060200190929190803590602001909291905050506116c8565b604051808215151515815260200191505060405180910390f35b61091061175f565b6040518082815260200191505060405180910390f35b6109726004803603604081101561093c57600080fd5b81019080803573ffffffffffffffffffffffffffffffffffffffff1690602001909291908035906020019092919050505061176e565b604051808215151515815260200191505060405180910390f35b610994611bb1565b6040518082815260200191505060405180910390f35b610a0c600480360360408110156109c057600080fd5b81019080803573ffffffffffffffffffffffffffffffffffffffff169060200190929190803573ffffffffffffffffffffffffffffffffffffffff169060200190929190505050611bc1565b6040518082815260200191505060405180910390f35b610a2a611c48565b6040518082815260200191505060405180910390f35b610a48611c58565b604051808273ffffffffffffffffffffffffffffffffffffffff1673ffffffffffffffffffffffffffffffffffffffff16815260200191505060405180910390f35b610a92611c7e565b604051808273ffffffffffffffffffffffffffffffffffffffff1673ffffffffffffffffffffffffffffffffffffffff16815260200191505060405180910390f35b606060058054600181600116156101000203166002900480601f016020809104026020016040519081016040528092919081815260200182805460018160011615610100020316600290048015610b6c5780601f10610b4157610100808354040283529160200191610b6c565b820191906000526020600020905b815481529060010190602001808311610b4f57829003601f168201915b5050505050905090565b6000600460009054906101000a900460ff1615610bfb576040517f08c379a00000000000000000000000000000000000000000000000000000000081526004018080602001828103825260108152602001807f5061757361626c653a207061757365640000000000000000000000000000000081525060200191505060405180910390fd5b610c058383611ca4565b905092915050565b6b02a649c112686927b400000081565b600d60009054906101000a900473ffffffffffffffffffffffffffffffffffffffff1681565b6000600254905090565b6b04b7af069768bb3a3400000081565b60008382600a60009054906101000a900473ffffffffffffffffffffffffffffffffffffffff1673ffffffffffffffffffffffffffffffffffffffff168273ffffffffffffffffffffffffffffffffffffffff161415610d25576040517f08c379a000000000000000000000000000000000000000000000000000000000815260040180806020018281038252600e8152602001807f4c6f636b6564206163636f756e7400000000000000000000000000000000000081525060200191505060405180910390fd5b600b60009054906101000a900473ffffffffffffffffffffffffffffffffffffffff1673ffffffffffffffffffffffffffffffffffffffff168273ffffffffffffffffffffffffffffffffffffffff161415610de9576040517f08c379a000000000000000000000000000000000000000000000000000000000815260040180806020018281038252600e8152602001807f4c6f636b6564206163636f756e7400000000000000000000000000000000000081525060200191505060405180910390fd5b600960009054906101000a900473ffffffffffffffffffffffffffffffffffffffff1673ffffffffffffffffffffffffffffffffffffffff168273ffffffffffffffffffffffffffffffffffffffff161415610f3c576000610e6c600960009054906101000a900473ffffffffffffffffffffffffffffffffffffffff166113dd565b6b07a025705a712ea438000000039050610eaf6064610ea1600a6b07a025705a712ea438000000611cbb90919063ffffffff16565b611d4190919063ffffffff16565b610ec28383611dd090919063ffffffff16565b1115610f36576040517f08c379a00000000000000000000000000000000000000000000000000000000081526004018080602001828103825260118152602001807f4f6e6c792031302520756e6c6f636b656400000000000000000000000000000081525060200191505060405180910390fd5b5061108c565b600c60009054906101000a900473ffffffffffffffffffffffffffffffffffffffff1673ffffffffffffffffffffffffffffffffffffffff168273ffffffffffffffffffffffffffffffffffffffff16141561108b576000610fbf600c60009054906101000a900473ffffffffffffffffffffffffffffffffffffffff166113dd565b6b01cf389cd46047d0300000000390506110026064610ff4600a6b01cf389cd46047d030000000611cbb90919063ffffffff16565b611d4190919063ffffffff16565b6110158383611dd090919063ffffffff16565b1115611089576040517f08c379a00000000000000000000000000000000000000000000000000000000081526004018080602001828103825260118152602001807f4f6e6c792031302520756e6c6f636b656400000000000000000000000000000081525060200191505060405180910390fd5b505b5b611097868686611e58565b925050509392505050565b600f60009054906101000a900473ffffffffffffffffffffffffffffffffffffffff1681565b6000600760009054906101000a900460ff16905090565b600b60009054906101000a900473ffffffffffffffffffffffffffffffffffffffff1681565b600c60009054906101000a900473ffffffffffffffffffffffffffffffffffffffff1681565b6000600460009054906101000a900460ff16156111b0576040517f08c379a00000000000000000000000000000000000000000000000000000000081526004018080602001828103825260108152602001807f5061757361626c653a207061757365640000000000000000000000000000000081525060200191505060405180910390fd5b6111ba8383611ef1565b905092915050565b6b01cf389cd46047d03000000081565b6111db33611332565b611230576040517f08c379a0000000000000000000000000000000000000000000000000000000008152600401808060200182810382526030815260200180612a046030913960400191505060405180910390fd5b600460009054906101000a900460ff166112b2576040517f08c379a00000000000000000000000000000000000000000000000000000000081526004018080602001828103825260148152602001807f5061757361626c653a206e6f742070617573656400000000000000000000000081525060200191505060405180910390fd5b6000600460006101000a81548160ff0219169083151502179055507f5db9ee0a495bf2e6ff9c91a7834c1ba4fdd244a5e8aa4e537bd38aeae4b073aa33604051808273ffffffffffffffffffffffffffffffffffffffff1673ffffffffffffffffffffffffffffffffffffffff16815260200191505060405180910390a1565b6000611348826003611f9690919063ffffffff16565b9050919050565b6b01193dcceea82b99d400000081565b6000600460009054906101000a900460ff16905090565b600e60009054906101000a900473ffffffffffffffffffffffffffffffffffffffff1681565b6b07a025705a712ea43800000081565b600960009054906101000a900473ffffffffffffffffffffffffffffffffffffffff1681565b6113db33612074565b565b60008060008373ffffffffffffffffffffffffffffffffffffffff1673ffffffffffffffffffffffffffffffffffffffff168152602001908152602001600020549050919050565b6b02e87669c308736a0400000081565b61143e33611332565b611493576040517f08c379a0000000000000000000000000000000000000000000000000000000008152600401808060200182810382526030815260200180612a046030913960400191505060405180910390fd5b61149c816120ce565b50565b6114a833611332565b6114fd576040517f08c379a0000000000000000000000000000000000000000000000000000000008152600401808060200182810382526030815260200180612a046030913960400191505060405180910390fd5b600460009054906101000a900460ff1615611580576040517f08c379a00000000000000000000000000000000000000000000000000000000081526004018080602001828103825260108152602001807f5061757361626c653a207061757365640000000000000000000000000000000081525060200191505060405180910390fd5b6001600460006101000a81548160ff0219169083151502179055507f62e78cea01bee320cd4e420270b5ea74000d11b0c9f74754ebdbfc544b05a25833604051808273ffffffffffffffffffffffffffffffffffffffff1673ffffffffffffffffffffffffffffffffffffffff16815260200191505060405180910390a1565b600760019054906101000a900473ffffffffffffffffffffffffffffffffffffffff1681565b606060068054600181600116156101000203166002900480601f0160208091040260200160405190810160405280929190818152602001828054600181600116156101000203166002900480156116be5780601f10611693576101008083540402835291602001916116be565b820191906000526020600020905b8154815290600101906020018083116116a157829003601f168201915b5050505050905090565b6000600460009054906101000a900460ff161561174d576040517f08c379a00000000000000000000000000000000000000000000000000000000081526004018080602001828103825260108152602001807f5061757361626c653a207061757365640000000000000000000000000000000081525060200191505060405180910390fd5b6117578383612128565b905092915050565b6ab5facfe5b81c365c00000081565b60003382600a60009054906101000a900473ffffffffffffffffffffffffffffffffffffffff1673ffffffffffffffffffffffffffffffffffffffff168273ffffffffffffffffffffffffffffffffffffffff161415611836576040517f08c379a000000000000000000000000000000000000000000000000000000000815260040180806020018281038252600e8152602001807f4c6f636b6564206163636f756e7400000000000000000000000000000000000081525060200191505060405180910390fd5b600b60009054906101000a900473ffffffffffffffffffffffffffffffffffffffff1673ffffffffffffffffffffffffffffffffffffffff168273ffffffffffffffffffffffffffffffffffffffff1614156118fa576040517f08c379a000000000000000000000000000000000000000000000000000000000815260040180806020018281038252600e8152602001807f4c6f636b6564206163636f756e7400000000000000000000000000000000000081525060200191505060405180910390fd5b600960009054906101000a900473ffffffffffffffffffffffffffffffffffffffff1673ffffffffffffffffffffffffffffffffffffffff168273ffffffffffffffffffffffffffffffffffffffff161415611a4d57600061197d600960009054906101000a900473ffffffffffffffffffffffffffffffffffffffff166113dd565b6b07a025705a712ea4380000000390506119c060646119b2600a6b07a025705a712ea438000000611cbb90919063ffffffff16565b611d4190919063ffffffff16565b6119d38383611dd090919063ffffffff16565b1115611a47576040517f08c379a00000000000000000000000000000000000000000000000000000000081526004018080602001828103825260118152602001807f4f6e6c792031302520756e6c6f636b656400000000000000000000000000000081525060200191505060405180910390fd5b50611b9d565b600c60009054906101000a900473ffffffffffffffffffffffffffffffffffffffff1673ffffffffffffffffffffffffffffffffffffffff168273ffffffffffffffffffffffffffffffffffffffff161415611b9c576000611ad0600c60009054906101000a900473ffffffffffffffffffffffffffffffffffffffff166113dd565b6b01cf389cd46047d030000000039050611b136064611b05600a6b01cf389cd46047d030000000611cbb90919063ffffffff16565b611d4190919063ffffffff16565b611b268383611dd090919063ffffffff16565b1115611b9a576040517f08c379a00000000000000000000000000000000000000000000000000000000081526004018080602001828103825260118152602001807f4f6e6c792031302520756e6c6f636b656400000000000000000000000000000081525060200191505060405180910390fd5b505b5b611ba785856121cd565b9250505092915050565b6b09b18ab5df7180b6b800000081565b6000600160008473ffffffffffffffffffffffffffffffffffffffff1673ffffffffffffffffffffffffffffffffffffffff16815260200190815260200160002060008373ffffffffffffffffffffffffffffffffffffffff1673ffffffffffffffffffffffffffffffffffffffff16815260200190815260200160002054905092915050565b6b01193dcceea82b99d400000081565b600860009054906101000a900473ffffffffffffffffffffffffffffffffffffffff1681565b600a60009054906101000a900473ffffffffffffffffffffffffffffffffffffffff1681565b6000611cb1338484612264565b6001905092915050565b600080831415611cce5760009050611d3b565b6000828402905082848281611cdf57fe5b0414611d36576040517f08c379a0000000000000000000000000000000000000000000000000000000008152600401808060200182810382526021815260200180612a776021913960400191505060405180910390fd5b809150505b92915050565b6000808211611db8576040517f08c379a000000000000000000000000000000000000000000000000000000000815260040180806020018281038252601a8152602001807f536166654d6174683a206469766973696f6e206279207a65726f00000000000081525060200191505060405180910390fd5b6000828481611dc357fe5b0490508091505092915050565b600080828401905083811015611e4e576040517f08c379a000000000000000000000000000000000000000000000000000000000815260040180806020018281038252601b8152602001807f536166654d6174683a206164646974696f6e206f766572666c6f77000000000081525060200191505060405180910390fd5b8091505092915050565b6000600460009054906101000a900460ff1615611edd576040517f08c379a00000000000000000000000000000000000000000000000000000000081526004018080602001828103825260108152602001807f5061757361626c653a207061757365640000000000000000000000000000000081525060200191505060405180910390fd5b611ee884848461245b565b90509392505050565b6000611f8c3384611f8785600160003373ffffffffffffffffffffffffffffffffffffffff1673ffffffffffffffffffffffffffffffffffffffff16815260200190815260200160002060008973ffffffffffffffffffffffffffffffffffffffff1673ffffffffffffffffffffffffffffffffffffffff16815260200190815260200160002054611dd090919063ffffffff16565b612264565b6001905092915050565b60008073ffffffffffffffffffffffffffffffffffffffff168273ffffffffffffffffffffffffffffffffffffffff16141561201d576040517f08c379a0000000000000000000000000000000000000000000000000000000008152600401808060200182810382526022815260200180612a986022913960400191505060405180910390fd5b8260000160008373ffffffffffffffffffffffffffffffffffffffff1673ffffffffffffffffffffffffffffffffffffffff16815260200190815260200160002060009054906101000a900460ff16905092915050565b61208881600361250c90919063ffffffff16565b8073ffffffffffffffffffffffffffffffffffffffff167fcd265ebaf09df2871cc7bd4133404a235ba12eff2041bb89d9c714a2621c7c7e60405160405180910390a250565b6120e28160036125c990919063ffffffff16565b8073ffffffffffffffffffffffffffffffffffffffff167f6719d08c1888103bea251a4ed56406bd0c3e69723c8a1686e017e7bbe159b6f860405160405180910390a250565b60006121c333846121be85600160003373ffffffffffffffffffffffffffffffffffffffff1673ffffffffffffffffffffffffffffffffffffffff16815260200190815260200160002060008973ffffffffffffffffffffffffffffffffffffffff1673ffffffffffffffffffffffffffffffffffffffff168152602001908152602001600020546126a490919063ffffffff16565b612264565b6001905092915050565b6000600460009054906101000a900460ff1615612252576040517f08c379a00000000000000000000000000000000000000000000000000000000081526004018080602001828103825260108152602001807f5061757361626c653a207061757365640000000000000000000000000000000081525060200191505060405180910390fd5b61225c838361272d565b905092915050565b600073ffffffffffffffffffffffffffffffffffffffff168373ffffffffffffffffffffffffffffffffffffffff1614156122ea576040517f08c379a0000000000000000000000000000000000000000000000000000000008152600401808060200182810382526024815260200180612adf6024913960400191505060405180910390fd5b600073ffffffffffffffffffffffffffffffffffffffff168273ffffffffffffffffffffffffffffffffffffffff161415612370576040517f08c379a0000000000000000000000000000000000000000000000000000000008152600401808060200182810382526022815260200180612a346022913960400191505060405180910390fd5b80600160008573ffffffffffffffffffffffffffffffffffffffff1673ffffffffffffffffffffffffffffffffffffffff16815260200190815260200160002060008473ffffffffffffffffffffffffffffffffffffffff1673ffffffffffffffffffffffffffffffffffffffff168152602001908152602001600020819055508173ffffffffffffffffffffffffffffffffffffffff168373ffffffffffffffffffffffffffffffffffffffff167f8c5be1e5ebec7d5bd14f71427d1e84f3dd0314c0f7b2291e5b200ac8c7c3b925836040518082815260200191505060405180910390a3505050565b6000612468848484612744565b61250184336124fc85600160008a73ffffffffffffffffffffffffffffffffffffffff1673ffffffffffffffffffffffffffffffffffffffff16815260200190815260200160002060003373ffffffffffffffffffffffffffffffffffffffff1673ffffffffffffffffffffffffffffffffffffffff168152602001908152602001600020546126a490919063ffffffff16565b612264565b600190509392505050565b6125168282611f96565b61256b576040517f08c379a0000000000000000000000000000000000000000000000000000000008152600401808060200182810382526021815260200180612a566021913960400191505060405180910390fd5b60008260000160008373ffffffffffffffffffffffffffffffffffffffff1673ffffffffffffffffffffffffffffffffffffffff16815260200190815260200160002060006101000a81548160ff0219169083151502179055505050565b6125d38282611f96565b15612646576040517f08c379a000000000000000000000000000000000000000000000000000000000815260040180806020018281038252601f8152602001807f526f6c65733a206163636f756e7420616c72656164792068617320726f6c650081525060200191505060405180910390fd5b60018260000160008373ffffffffffffffffffffffffffffffffffffffff1673ffffffffffffffffffffffffffffffffffffffff16815260200190815260200160002060006101000a81548160ff0219169083151502179055505050565b60008282111561271c576040517f08c379a000000000000000000000000000000000000000000000000000000000815260040180806020018281038252601e8152602001807f536166654d6174683a207375627472616374696f6e206f766572666c6f77000081525060200191505060405180910390fd5b600082840390508091505092915050565b600061273a338484612744565b6001905092915050565b600073ffffffffffffffffffffffffffffffffffffffff168373ffffffffffffffffffffffffffffffffffffffff1614156127ca576040517f08c379a0000000000000000000000000000000000000000000000000000000008152600401808060200182810382526025815260200180612aba6025913960400191505060405180910390fd5b600073ffffffffffffffffffffffffffffffffffffffff168273ffffffffffffffffffffffffffffffffffffffff161415612850576040517f08c379a00000000000000000000000000000000000000000000000000000000081526004018080602001828103825260238152602001806129e16023913960400191505060405180910390fd5b6128a1816000808673ffffffffffffffffffffffffffffffffffffffff1673ffffffffffffffffffffffffffffffffffffffff168152602001908152602001600020546126a490919063ffffffff16565b6000808573ffffffffffffffffffffffffffffffffffffffff1673ffffffffffffffffffffffffffffffffffffffff16815260200190815260200160002081905550612934816000808573ffffffffffffffffffffffffffffffffffffffff1673ffffffffffffffffffffffffffffffffffffffff16815260200190815260200160002054611dd090919063ffffffff16565b6000808473ffffffffffffffffffffffffffffffffffffffff1673ffffffffffffffffffffffffffffffffffffffff168152602001908152602001600020819055508173ffffffffffffffffffffffffffffffffffffffff168373ffffffffffffffffffffffffffffffffffffffff167fddf252ad1be2c89b69c2b068fc378daa952ba7f163c4a11628f55a4df523b3ef836040518082815260200191505060405180910390a350505056fe45524332303a207472616e7366657220746f20746865207a65726f2061646472657373506175736572526f6c653a2063616c6c657220646f6573206e6f742068617665207468652050617573657220726f6c6545524332303a20617070726f766520746f20746865207a65726f2061646472657373526f6c65733a206163636f756e7420646f6573206e6f74206861766520726f6c65536166654d6174683a206d756c7469706c69636174696f6e206f766572666c6f77526f6c65733a206163636f756e7420697320746865207a65726f206164647265737345524332303a207472616e736665722066726f6d20746865207a65726f206164647265737345524332303a20617070726f76652066726f6d20746865207a65726f2061646472657373a165627a7a7230582058d1441b998205daaa8691d9a1f0915b8214d4ee9b525a2e0d5b9d87602272840029496e76616c6964207075626c69632073616c652062656e65666963696172792061646472657373496e76616c69642064656c6976657261626c65732062656e65666963696172792061646472657373496e76616c6964206d61726b6574696e672062656e65666963696172792061646472657373526f6c65733a206163636f756e7420697320746865207a65726f2061646472657373496e76616c696420666f756e646174696f6e2062656e65666963696172792061646472657373496e76616c696420707269766174652073616c652062656e65666963696172792061646472657373496e76616c6964206e6574776f726b20706f6f6c2062656e65666963696172792061646472657373496e76616c696420656e68616e63656d656e742062656e65666963696172792061646472657373496e76616c6964206578636820706f6f6c2062656e65666963696172792061646472657373",
  "source": "pragma solidity ^0.5.0;\n\nimport \"openzeppelin-solidity/contracts/token/ERC20/ERC20.sol\";\nimport \"openzeppelin-solidity/contracts/token/ERC20/ERC20Detailed.sol\";\nimport \"openzeppelin-solidity/contracts/math/SafeMath.sol\";\nimport \"openzeppelin-solidity/contracts/token/ERC20/ERC20Pausable.sol\";\n\ncontract UnirisToken is ERC20Pausable, ERC20Detailed {\n\n  //8.2% for the private sale will be transfered to vesting smart contracts\n  uint256 public constant private_sale_supply = 820000000000000000000000000;\n\n  //30% for the public sale\n  uint256 public constant public_sale_supply = 3000000000000000000000000000;\n\n  //23.6% for the deliverables (10% will be available before the mainnet for early contributions)\n  uint256 public constant deliverable_supply = 2360000000000000000000000000;\n\n  //14.6% for the network pool (locked until mainnet)\n  uint256 public constant network_pool_supply = 1460000000000000000000000000;\n\n  //9% for the enhancements (locked unti mainnet)\n  uint256 public constant enhancement_supply = 900000000000000000000000000;\n\n  //5.6% for the team (10% will be available before the mainnet as needed)\n  uint256 public constant team_supply = 560000000000000000000000000;\n\n  //3.4% for the Exch. Pool\n  uint256 public constant exch_pool_supply = 340000000000000000000000000;\n\n  //3.4% for the marketing\n  uint256 public constant marketing_supply = 340000000000000000000000000;\n\n  //2.2% for the foundation\n  uint256 public constant foundation_supply = 220000000000000000000000000;\n\n  address public private_sale_beneficiary;\n  address public public_sale_beneficiary;\n  address public deliverables_beneficiary;\n  address public network_pool_beneficiary;\n  address public enhancement_beneficiary;\n  address public team_beneficiary;\n  address public exch_pool_beneficiary;\n  address public marketing_beneficiary;\n  address public foundation_beneficiary;\n\n  modifier onlyUnlocked(address from, uint256 value) {\n    //Network pool and enhancement are locked until the mainnet\n    require(from != network_pool_beneficiary, \"Locked account\");\n    require(from != enhancement_beneficiary, \"Locked account\");\n\n    //Deliverables and team tokens are only unlocked for 10% of their supply\n    if (from == deliverables_beneficiary) {\n      uint256 _delivered = deliverable_supply - balanceOf(deliverables_beneficiary);\n      require(_delivered.add(value) <= deliverable_supply.mul(10).div(100), \"Only 10% unlocked\");\n    }\n    else if (from == team_beneficiary) {\n      uint256 _delivered = team_supply - balanceOf(team_beneficiary);\n      require(_delivered.add(value) <= team_supply.mul(10).div(100), \"Only 10% unlocked\");\n    }\n    _;\n  }\n\n  constructor(\n    address _private_sale_beneficiary,\n    address _public_sale_beneficiary,\n    address _deliverables_beneficiary,\n    address _network_pool_beneficiary,\n    address _enhancement_beneficiary,\n    address _team_beneficiary,\n    address _exch_pool_beneficiary,\n    address _marketing_beneficiary,\n    address _foundation_beneficiary\n    ) public ERC20Detailed(\"UnirisToken\", \"UCO\", 18) {\n\n    require(_private_sale_beneficiary != address(0), \"Invalid private sale beneficiary address\");\n    require(_public_sale_beneficiary != address(0), \"Invalid public sale beneficiary address\");\n    require(_deliverables_beneficiary != address(0), \"Invalid deliverables beneficiary address\");\n    require(_network_pool_beneficiary != address(0), \"Invalid network pool beneficiary address\");\n    require(_enhancement_beneficiary != address(0), \"Invalid enhancement beneficiary address\");\n    require(_team_beneficiary != address(0), \"Invalid team beneficiary address\");\n    require(_exch_pool_beneficiary != address(0), \"Invalid exch pool beneficiary address\");\n    require(_marketing_beneficiary != address(0), \"Invalid marketing beneficiary address\");\n    require(_foundation_beneficiary != address(0), \"Invalid foundation beneficiary address\");\n\n    private_sale_beneficiary = _private_sale_beneficiary;\n    public_sale_beneficiary = _public_sale_beneficiary;\n    deliverables_beneficiary = _deliverables_beneficiary;\n    network_pool_beneficiary = _network_pool_beneficiary;\n    enhancement_beneficiary = _enhancement_beneficiary;\n    team_beneficiary = _team_beneficiary;\n    exch_pool_beneficiary = _exch_pool_beneficiary;\n    marketing_beneficiary = _marketing_beneficiary;\n    foundation_beneficiary = _foundation_beneficiary;\n\n    _mint(private_sale_beneficiary, private_sale_supply);\n    _mint(public_sale_beneficiary, public_sale_supply);\n    _mint(deliverables_beneficiary, deliverable_supply);\n    _mint(network_pool_beneficiary, network_pool_supply);\n    _mint(enhancement_beneficiary, enhancement_supply);\n    _mint(team_beneficiary, team_supply);\n    _mint(exch_pool_beneficiary, exch_pool_supply);\n    _mint(marketing_beneficiary, marketing_supply);\n    _mint(foundation_beneficiary, foundation_supply);\n  }\n\n  function transfer(address _to, uint256 _value) public onlyUnlocked(msg.sender, _value) returns (bool success) {\n    return super.transfer(_to, _value);\n  }\n\n  function transferFrom(address _from, address _to, uint256 _value) public onlyUnlocked(_from, _value) returns (bool success) {\n    return super.transferFrom(_from, _to, _value);\n  }\n}",
  "sourcePath": "/Users/samuel/Documents/code/nodejs/uniris_erc_20/contracts/UnirisToken.sol",
  "compiler": {
    "name": "solc",
    "version": "0.5.8+commit.23d335f2.Emscripten.clang"
  },
  "schemaVersion": "3.0.16",
  "updatedAt": "2019-11-13T13:07:06.791Z",
  "devdoc": {
    "methods": {
      "allowance(address,address)": {
        "details": "See `IERC20.allowance`."
      },
      "balanceOf(address)": {
        "details": "See `IERC20.balanceOf`."
      },
      "decimals()": {
        "details": "Returns the number of decimals used to get its user representation. For example, if `decimals` equals `2`, a balance of `505` tokens should be displayed to a user as `5,05` (`505 / 10 ** 2`).     * Tokens usually opt for a value of 18, imitating the relationship between Ether and Wei.     * > Note that this information is only used for _display_ purposes: it in no way affects any of the arithmetic of the contract, including `IERC20.balanceOf` and `IERC20.transfer`."
      },
      "name()": {
        "details": "Returns the name of the token."
      },
      "pause()": {
        "details": "Called by a pauser to pause, triggers stopped state."
      },
      "paused()": {
        "details": "Returns true if the contract is paused, and false otherwise."
      },
      "symbol()": {
        "details": "Returns the symbol of the token, usually a shorter version of the name."
      },
      "totalSupply()": {
        "details": "See `IERC20.totalSupply`."
      },
      "unpause()": {
        "details": "Called by a pauser to unpause, returns to normal state."
      }
    }
  },
  "userdoc": {
    "methods": {}
  }
}